:200000008DC100009DC100009BC1000099C1000097C100000C940D2293C1000080C60000BD
:200020008FC100008DC100000C9447180C94F1210C94FF210C94211883C1000081C1000052
:200040000C94CB217DC100007BC1000079C1000077C1000065C6000073C1000071C1000097
:200060006FC100006DC10000E62FF72F903009F49395E5B8C4B8B7EFB0937A00A5E0A093CE
:200080007B00A8E0A093810010928000AFEFA0938500A0938400A6E0A093360010928B005E
:2000A00010928A00B6E0AFE7A91B51E0392F36302AF0A058B94F53953650F9CFB093890009
:2000C000A0938800A0917A00A4FFFCCFB7EBB0937A00A2E0A0936F00A9E0A093810062E04A
:2000E000A0E0A0937B00A1E0A09353008895E5B8C4B884FF19C0A3E4AA95F1F7EF93FF9377
:20010000E7B1F8B1A4E0C2FCA2E0C0FCA1E0BF2FBA2BAE2BB8B904B9A7B9E7B9F8B9FF9182
:20012000EF910AC00C947300A7E40000AA95F1F725B9E5B8000004B9A0918400A09185000D
:20014000B0918900A395AB1768F7A0917A00A4FFF3CFB7EBB0937A006A9571F7609178003D
:2001600070917900308186FD630F6193308186FD731F80FF7193652F4A9579F710926F002E
:2001800010928100B7E0B0937A0008950104100102044E6F742063616C69627261746564D3
:2001A0002120466F72FF63616C6962726174696F6E20636C616D70207468652033FF706997
:2001C0006E7320746F67657468657220616E64207374617274207769746820746865FF6B74
:2001E00065792E2041636B6E6F776C65646765207468652073656C662D7465737420776957
:20020000746820746865206B65792077697468696EFF32732E20446973636F6E6E65637489
:200220002070696E7320616674657220746865FF6D657373616765202269736F6C6174653A
:20024000FF50726F626521222069732073686F776E2E20536F66747761726520616E64200D
:20026000646F63756D656E746174696F6E2069732061742073766E3A2F2F206D696B726FC2
:20028000636F6E74726F6C6C65722E206E65742F7472616E736973746F72207465737465B8
:2002A000722000B903870358032E030703E402C302A40288020000140029003E00530069BE
:2002C0000080009700AE00C600DF00F80012012D01490165018201A001BE01DE01FF0121E8
:2002E00002440268028E02B502DE020903350364039403C803FE0337047304B404F904436D
:20030000059305EA054906B3062907AE074808FF08DE09FD0A930C480F991B0011241FBE63
:20032000CFEFD8E0DEBFCDBF21E0A0E0B1E001C01D92AA3BB207E1F70E94E62D0C94C135DB
:200340005FCE80FD5C9A80FF5C98549A00005D9A559A589859985A985B9864FD589A509AB3
:2003600065FD599A519A66FD5A9A529A67FD5B9A539A00005D984BD387FD10C05D9A589866
:2003800059985A985B9860FD589A61FD599A62FD5A9A63FD5B9A00005D9839C308958091A0
:2003A0003B01809300018091A10180930201089590913B019F5F90933B01682F81E0C1DF35
:2003C0001DD3A89508958F5CF3CF089580E2F0CF0895A1E0B0E0EFEEF1E00C941035181679
:2003E0002CF48983F3DF89818150F9CF2196E2E00C942C358DE3DCCF0895682F80E0A1DFB3
:20040000FDC208951092A10180E8F7DF10923B01089581E08093A10180ECEFDF10923B0155
:20042000089582E08093A10180E9E7DF10923B01089583E08093A10180EDDFDF10923B013D
:20044000089560933B01813011F480EC01C080E8860FD3CF08956091000180910201F1CFEB
:20046000089581E0CADF82E0D6D2CCCF0895CF93DF93EC018991882311F09ADFFBCFDF9159
:20048000CF910895CF93DF93EC01FE018491982F9F7719F08DDF2196F8CFDF91CF9108954D
:2004A000CF93DF93EC01CE010E948335982F9F7719F07EDF2196F7CFDF91CF9108950F9383
:2004C0001F93CF93DF938C01085F1F4FEC0121960E9483356DDFC017D10711F0CE01F6CFA6
:2004E000DF91CF911F910F91089584E194D283E384DF82E382DF82E08ED280E27EDF80E202
:200500007CDF8AE27ADF88E078DF86E076DF82E074DFA7DF81E07FD28CE06FDF88E46DDFE2
:2005200082E690E0CCDF80E568DF8AE590E0C7DF88E563DF8AE690E0C2DF88E75EDF82E5C4
:2005400090E0BDDF80E759DF8AE490E0B8DF80E454DF82E490E0B3CF089590913B0180E131
:20056000891B37CF0895A1E0B0E0E9EBF2E00C9410358983F2DF9091A1019F5F9093A10135
:200580008981923030F091E09093A10190933E0102C010923E01682F8091A10152DF219602
:2005A000E2E00C942C35DFDF1DC308952BDFD5DF29CF08952EDFD1DF2CCF089508950F9356
:2005C00089E891E06DDF409185014D3F64F46091730170917401809175019091760103E0D5
:2005E00026E4E3D002C08FE3E3DE0F910895909119019F70923071F4D6DF82E790E050DFDE
:20060000E0913C01F0913D0122E044EF6FEF84819581BAC1089597FF09C08F939F938DE285
:20062000C7DE9F918F91909581959F4F61E271E04AE050E00E9460351ACFEDDF01C0EBDF37
:20064000C5CEEF92FF920F931F93182F062FF42E88E791E025DFEE24E0913C01F0913D01A0
:200660008685E81611F4812F09C08485E81611F4802F04C08585E81611F48F2D99DEE394BD
:200680008E2D833049F71F910F91FF90EF900895682F80E092E0662309F491E0623009F4C2
:2006A00081E008950F93082FE2EAF1E0880F880FE80FF11D60817181828193816436710599
:2006C0008105910570F42091010127FD0AC0802FDFDF692F0E949B1D6EEF23E044EF54D1E2
:2006E00004C04FEF04E024EF60D070DE0F910895863058F4E5E9F1E0E80FF11DE80FF11D9B
:200700008081918163E04BD161CE08951F93182F80916F01882319F059DE80E049DE79DE58
:200720008FE691E0BDDE812F82958F70E1DF812F8F70DEDF1F91089580910D0182958F70C4
:2007400018D080910D0183701AD080910D01DECFE9E8F1E0E80FF11D0895CF93F9DF90815A
:20076000C681C91710F405D001C011D02FDECF910895EEDF8F93808126DE8F9100C08F93D7
:2007800085E391E08DDE8F91E3DF86811CCEE0DF8F93868118DE8F9100C08F9381E391E08D
:2007A0007FDE8F91D5DF80810ECEAEE0B0E0EBEDF3E00C940035342E222E6B017C01102FB3
:2007C0001F7080E389838A838B838C838D838E83F7FE0BC08DE2ECDDF094E094D094C09428
:2007E000C11CD11CE11CF11C04C005FF02C08BE2DFDD133009F4B6C0143009F4BAC01530BC
:2008000051F0163081F01730B1F074E6872E912CA12CB12C17C060EA862E66E8962EAA24CD
:20082000A394B12C0FC050E4852E52E4952E5FE0A52EB12C07C040E8842E46E9942E48E943
:20084000A42EB12C3AE0432E512C612C712CC814D904EA04FB0470F0C701B6016B5F7F4F9A
:200860008F4F9F4FA30192010E94183469017A013394EDCF81E1830D9BEA899F912C11248E
:20088000969486E08319899F812C11248694982D990F980D882E891A5E0187E0A80EB11C54
:2008A0002AE0A501C701B6010E943F35F50101900020E9F7CF0101977C01EA18FB08AE2CA8
:2008C0006701DD24282D30E02C5F3F4F2C153D051CF4939493E0890E892D90E0865C9F4F77
:2008E0000E948335B82E04FF04C0A11610F41E1901C010E0AE2CA818A10E1A1424F08EE253
:2009000057DD182D1E19811002C028EFA22E912C012F10E0C00ED11EEA2CFF24E7FCF094B3
:20092000E92DF0E0EC15FD05A4F43696E01BF10B81E090E08C0F9D1FE80FF91F808138DD26
:200940009394892D90E08E159F0551F78EE230DDE7CFBB2011F08B2D2BDD222089F0822D82
:2009600027DD0EC098EE892E93E0992EA12CB12C69CF80E1882E87E2982EA12CB12C62CF2B
:200980002E96E2E10C941C350F93362FBC0180E090E0022F242F432F08DF0F9108950F938F
:2009A000062FBC0180E090E026E54DEFFEDE0F9108950F93042F28E440E0F7DE8AE7F8DCFA
:2009C00005DD0F910895089503D002D001D000D000D003D002D001D000D000D003D002D08A
:2009E00001D000D000D0A89503D002D001D000D000D003D002D001D000D000D003D002D078
:200A000001D000D000D003D002D001D000D000D000C00000089590E0893C28F0885C48EC8D
:200A2000849FC0011124009709F4089520918100277019F0D8DF0197F6CF8130910519F036
:200A4000029733EB03C031E580E090E02091B200230F2093B30042E04093700027E023BFED
:200A6000889526E023BF10927000A895DCCF8F9384E0D1DF07C08F9382E0CDDF03C08F9365
:200A800081E0C9DF8F911F93182F106410937C00E12FE07880912C01E81759F0E0932C0113
:200AA000ACDF8FE980937A0083E083BF889582E083BF20E030E0A901E0E01FC08FE980935C
:200AC0007A0083E083BF889582E083BF6091780070917900260F371F411D511DE43061F493
:200AE00080912E01803041F084E02030380720F417FD02C01068CACFEF5F80912B01E8175D
:200B0000E8F260912F017091300117FF04C060912D0170912E0180E090E00E94D6332FEFE6
:200B200033E040E050E00E941834B901CA0120912B0130E040E050E00E941834C9011F913A
:200B400008959B01281B390B50F0C9010895BC0180912F01909130016817790718F4861B32
:200B6000970B089580E090E00895EF92FF920F931F93CF93DF93F82EE92EC5E64F9B05C0F8
:200B8000CF2DDE2D05E510E019C081E044DFC150A9F7F6CF82E03FDF000F4F9B0F5F0F7338
:200BA0000F3379F4111103C0CF2DDE2D14E01F5F183C90F4A8951C161D0644F0D7FFEACFFB
:200BC0000BC00111F7CF1123A9F306C02A972097A9F7CFEFDFEFF2CF812FCDB7DEB7E6E0E8
:200BE0000C942835CF93DBDBC82F80913E018823C1F0813049F4C13039F46FE022DC8BE277
:200C0000D7DB6FE081E01DDC80E49FE1AEDFC13039F480913E01813019F460E012DC9DDC35
:200C20001ADCCF91089589E493E00E948335382F8AE493E00E94833520913301230F30910D
:200C40003401381F209316013093170183E0283E380720F0C901885E934002C080E090E036
:200C600062E370E00E94F133683008F067E0E3EAF2E0E60FF11DE60FF11D4591559125912B
:200C8000359162E3681B421B530B649FC001659F900D1124499662E370E00E94F133620FC6
:200CA000731F70937201609371018BE493E00E948335992787FD90956091330170913401C7
:200CC000860F971F90932E0180932D0190936E0180936D010895CF93DF9324E130E0B901E3
:200CE0000E94F133DC01E5EBF2E0E60FF71FE60FF71FC591D591459155914C1B5D0B4A9F69
:200D0000C0014B9F900D5A9F900D1124B9010E94F1336C0F7D1FCB01DF91CF910895189543
:200D20001895CF93DF9330911801A0913C01B0913D01E9E8F1E080E090E08317C0F44191D9
:200D40001C962C911C97421731F0EC01C757DE4F4E81421302C00196F0CFFC01EE0FFF1F6B
:200D6000EB56FE4F20813181293E334008F084E1DF91CF91089510921A01109218011092D4
:200D8000680110924E011092190110923A0110926F011092530110925401109255011092C7
:200DA000830182E08093840110920101109282011092810110927701109278011092790177
:200DC00010927A0181EF8093860108955E98FFDD80E090E0CACE0895A1E0B0E0E2EFF6E0C0
:200DE0000C940E3517B818B8E82FF0E0E457FE4F949195B9262F281BE20FF11D27FDFA9545
:200E0000E491E92BE4B969833EDE8C016981862F3ADE20912F013091300136952795A9015C
:200E200043505109B801625E7F4F4617570778F4255E3F4F0217130750F4BC01625E7F4F84
:200E40004617570720F441E08217930708F040E014B8842F2196E4E00C942A35CF9361E0BB
:200E600080E0BADFC82F62E080E0B6DFC80F62E081E0B2DF8C0FCF910895A3E1B0E0E3E4CD
:200E8000F7E00C940035B82E10921A01807FA9F4E5DF833009F0B7C3E4DA88E592E000DB05
:200EA000B8DA8FE385DA80ED97E05FDE8B30C0F4D8DA83E091E0F4DAA6C306E910E0D1DAF8
:200EC00087EC91E0EDDACADF833021F41F5F143010F006C010E088E29EDD015081F763C0AD
:200EE00098DA0E94A8188FEB90E0DADA60E082E293E00E94903560E083E293E00E94903583
:200F000060E081E293E00E94903560E082E00E949B1D6C019A83898361E082E00E949B1DC5
:200F20007C019C838B8360E081E00E949B1D8C019E838D8323E040E26EEFC60125DD23E000
:200F400040E26EEFC70120DD23E044EF6EEFC8011BDD2AE5C216D10424F024E130E03A8357
:200F60002983698182E293E00E9490358AE5E816F10424F024E130E03C832B836B8183E254
:200F800093E00E9490350A35110524F024E130E03E832D836D8181E293E00E94903582E0FB
:200FA00080933E011FDE9B2D9F709F87913009F04DC001E010E058EB252E52ED352E57E4DA
:200FC000452E512C62E0A62E78E0972EECE06E2EF4ECCF2EF6E3DF2EE12CF12C39C0839489
:200FE00023E0281558F1E6DAE1DA84E5E1D9C8011DDBECD9E1E0BE1230C082EF90E050DAB8
:2010000064E08091330190913401C9DC02DA8DEE90E046DA809171019091720107DB8EEBF3
:2010200080932B0117B818B814B815B888EE93E09CDDF4E0BF1699F28B3088F288EE93E085
:2010400094DD0F5F1F4F0830110511F418E71BC1812CB02EB0E27B2EC6CFF2E0BF1241C016
:2010600020912F0130913001A8E5BBE10E945634A70196010E943A3481E085B985E084B9B8
:2010800080E0288B398B4A8B5B8BF1DC288939894A895B89821B930B9A83898381E184B9C4
:2010A00080E0288B398B4A8B5B8BE1DC288939894A895B89821B930B9C838B8384E085B9AD
:2010C00084E184B981E0288B398B4A8B5B8BCFDC28893989821B930B9E838D8387ED90E06D
:2010E000B7C093E0B91229C0A5B8EAE0E4B980E0BEDC20912F01309130013695279538877B
:201100002F83821B930B9A838983F2E2F4B980E0AEDC2F813885821B930B9C838B8395B82C
:2011200028E224B981E0A3DC2F813885821B930B9E838D8389EC90E08BC084E0B81207C0EA
:2011400088E492E0ADD98ADE81115AC287C095E0B91213C015B8A4B880E089DC9A838983A4
:2011600094B881E084DC9C838B8374B882E07FDC9E838D8389EE90E06BC0E6E0BE1227C08C
:20118000A4B8A5B880E073DC20912F0130913001821B930B9A83898394B895B881E067DC73
:2011A00020912F0130913001821B930B9C838B8374B875B882E05BDC20912F01309130012F
:2011C000821B930B9E838D8385EE90E041C0F7E0BF1240C020912F0130913001A8E5BBE11B
:2011E0000E945634A20191010E941834A5B883E084B980E0288B398B4A8B5B8B38DC28894C
:2012000039894A895B89821B930B9A83898395B864B881E0288B398B4A8B5B8B28DC288940
:2012200039894A895B89821B930B9C838B8375B890E394B982E0288B398B4A8B5B8B17DC59
:2012400028893989821B930B9E838D8383EC90E027D904C0E1E0BE1609F4E4CEDAD889810C
:201260009A81D9D9B3D88B819C81D5D9AFD88D819E81D1D9D7CE9ED988E492E011D984E693
:20128000CADB115019F0EADD8111F5CFEAD888EB90E006D923E044EF6FEF809131019091A6
:2012A000320172DBB6D881EB90E0FAD823E044EF6FEF809138019091390166DB82E0809383
:2012C0003E0190DC10921A01CCD88DEA90E0E8D860E082E00E94521580907B0190907C0187
:2012E000A0907D01B0907E019C868B8661E082E00E945215C0907B01D0907C01E0907D010B
:20130000F0907E01DE86CD8660E081E00E94521500917B0110917C011E830D8362E080E06F
:201320000E94521580917B0190917C019C838B8362E081E00E94521580917B0190917C0175
:201340009A87898761E080E00E94521580917B0190917C019A838983EF85E13021F0209117
:201360003701223021F4029698878F8306C098878F83109237018CE040D8C40160D9C601EB
:201380005ED9B801882777FD8095982F03E026E444EF0BDA6E01FFE0CF0ED11CFE0131967B
:2013A000819191910A97853B9105E0F4EC15FD05B9F7A2E4EA2EA3E0FA2E8E010F5F1F4FC7
:2013C000F80160810E5F1F4F6E5EC7010E949035FFEFEF1AFF0A0C151D0591F71AD88BEA2B
:2013E00091E05ED882E080933E01FCDB0E94922A2F85213029F080913701823009F0E7C0A4
:2014000030D880E00E94E30181E691E049D882E00E94E30182E390E043D8E0E4BE2E10E06D
:20142000FAE0CF2ED12CE12CF12CA5DC10921A0160E082E00E945215009185016091730149
:20144000709174018091750190917601073F44F4A70196010E9418340F5FB901CA01F6CF94
:201460000093850160937301709374018093750190937601073F09F093C0DC01CB01805640
:201480009109A109B10980399545A105B10508F087C06091870170918801CB018B569F4F82
:2014A0008B32914008F07CC01F5F153008F479C089E493E00E949E350E9431028BE290E06B
:2014C0000E9450028091870190918801A4D8ABDB18B881E087B980E284B982E0D4DA853DF1
:2014E0009340DCF714B810922E0110922D0182E0CADA8C0180916D0190916E0190932E01E5
:2015000080932D0182E0BFDA7C01EE0CFF1C10922E0110922D0182E0B6DAC0906D01D0904C
:201520006E01D0922E01C0922D01080F191F0E191F090E94090284E290E00E9450028BE4A7
:2015400093E00E94833573E0B72EB80E9601D8010E9465349701442737FD4095542F0E94E4
:201560003A34B20E6B2D8BE493E00E9490358B2D992787FD90954FD856DB82E080933E012F
:2015800031DB109237018CE00E94FD0182E493E00E948335682F85E493E00E94903517C075
:2015A00010E00E9409026091730170917401809175019091760104E026E440918501F5D882
:2015C0000E94AD0288E227DABA9409F02ECF89E180932B0180E00E94A02D0E94310283E05B
:2015E00091E00E9450020E9409028FE392E00E94500210921A0182E080933E01F3DA03C000
:2016000052E0852E2BCE6396E2E10C941C358091370181110DC082E493E00E94833561E023
:20162000680F85E493E00E94903581E0809337010895CF92DF92FF920F931F93CF93DF931C
:201640001F92CDB7DEB7E82FF0E0E157FE4FE491E8B9E7B915B8E62FF0E0E457FE4FE491EF
:20166000E4B908E813E1FE2EFF0C862F6983FFD96C01F4B869818017910710F48C01F5CFB2
:201680000097D1F08FE391E00E945002D60120EA36E841E050E00E946B3428E937EB40E037
:2016A00050E00E941834DA01C90122E041E467EF6BD917B818B814B80F90DF91CF911F911C
:2016C0000F91FF90DF90CF9008959C01261B370BB0E0A0E0B9016A0F711D672F7727A20F9A
:2016E000260F371FBA016B0F711D672F7727B40FFB01EE0FFF1F4E0F5F1F6B3E28F4821755
:20170000930740F7CA01089580E090E00895ADE1B0E0EDE8FBE00C940035982E862E242EB4
:20172000A895E62FF0E0E457FE4F24912E87220F288F339634913B83E42FF0E0E457FE4FF6
:2017400044914C83F42EFF0C3396B490E82FF0E0E457FE4F54915983550F5F8733963490A4
:2017600045B96E85462B4A8744B937B838B8882D86D9AC018C818F2985B9EE84EF28E4B871
:20178000882D498F5D8F7BD97E8574B9882D77D93C0114B827D915B88A8584B9882D6FD928
:2017A000498D5D8DBA01CDD96C019B8197B918B8A981BC81AB2BAD83A5B9A4B9892D5FD949
:2017C000C6D98C0115B80ED9E981E5B9892D57D9BED92C01F981F4B9892D51D9B8D9A82E09
:2017E000292FB201C8012A8FACD92A8D498D5D8D803231E0930730F460E2C61661E0D606A4
:2018000008F478C5C40CD51C840F951FC816D90610F02A0102C06A2C722E20914E01809196
:20182000680190E0820F911D02974CF0213009F061C590914B018091650198135BC57981A2
:201840007F29798784E74816510408F468C1C201880F991F44966816790608F060C137B8AC
:2018600038B8E4B8882D07D96C01822D0CD98C01F5B8882D00D99601295A3D4F18B82817C9
:20188000390708F09CC09B8197B9A985A4B9A5B9822DF1D888349F4028F085E080931A01A1
:2018A00082E204C085E080931A0184E280931901D0924401C0924301B801C6014DD99093D4
:2018C0004A01809349019601A0E1B7E20E945634209114013091150140E050E00E941834A8
:2018E0003093460120934501888D8F2984B915B837B838B8822DC7D88C01882DBCD8B80152
:201900002BD99093480180934701209119012F70243059F540914501509146016091490176
:2019200070914A01D2DE0097E1F0F4B8EB813E2A37B8882DA0D88C0117B89C01A0E1B7E294
:201940000E945634209138013091390140E050E00E941834A901B801809147019091480112
:20196000B4DE9093440180934301809119018F70843009F4B7C418B8EB80EB28E7B8F98159
:20198000F4B92D8125B9892D7AD86C01E0D88C01882D79D8E0901B01F0901C01BC01C601A1
:2019A000DBD89C01D7010E945634980140E050E00E941834309344012093430193C43B81EA
:2019C00037B9498544B945B9892D55D86C01822D5AD88C01598155B9892D4DD8895A9D4FFE
:2019E0008C159D0508F086C438B837B8822D43D8813D934028F485E080931A0182E304C050
:201A000085E080931A0184E380931901B601C801A3D89093640180936301C60198D89C01D1
:201A2000A0E1B7E20E94563420911B0130911C0140E050E00E9418343093600120935F0140
:201A400018B87B8177B98F858F2984B985B9892D1AD88C01822D0FD8B8017ED890936201E3
:201A600080936101209119012F70243079F540915F0150916001609163017091640125DE94
:201A8000009701F1F5B8F4B838B88B81832987B9892D0E943B055BD88C0117B89C01A0E137
:201AA000B7E20E945634209131013091320140E050E00E941834A901B80180916101909155
:201AC000620103DE90935E0180935D01809119018F70843009F4DEC13B2838B837B815B846
:201AE0008D8184B9892D0E943F057C01882D0E9443056C010091140110911501BC01C70194
:201B00002BD89C01D8010E945634960140E050E00E94183430935E0120935D01BBC118B8CC
:201B20009B8197B9A981A5B9B985B4B9892D0E943F05998B888B0BD88C01822D0E9443052A
:201B400098878F836301E4E6CE0ED11CB301C801C016D106B0F400D85C0180911B0190910C
:201B60001C019C0140E050E060E871EA83E09CE10E941834D5010E946B34AF81B8859D01C8
:201B80001EC00E94AC055C01BD81B4B9892D0E943F05998B888B0E94A7058C01822D0E940D
:201BA000430598878F83BC01C5010E94AC059C01A4E6B0E00E945634EF81F8859F0140E046
:201BC00050E00E9418342C8B3D8B4E8B5F8B14B815B838B837B881E00E940B05FA85F4B9EE
:201BE000882D0E943F058F359D4008F459C1E4B8882D0E943B055C01822D0E9443059C8F3F
:201C00008B8F892D0E9443059B8B8A8B4B8D5C8D413D574008F4D2C0F5B8882D0E943B0527
:201C20008115944098F080911A01843078F48AE080931A016B8D7C8D8A899B890E94AC0543
:201C400090935E0180935D0121E02AC484E080931A018DE0809319016A147B0430F4C5018F
:201C6000861997099A83898302C0BA82A982C0901401D0901501E12CF12C60E871EA83E0C8
:201C80009CE1A70196010E941834A981BA810E946B34AB8DBC8D9D0140E050E00E94183497
:201CA00080916801882369F08091590190915A01A0915B01B0915C0182179307A407B507FA
:201CC00008F52093590130935A0140935B0150935C019501A0E1B7E20E945634A701960152
:201CE0000E9418343093600120935F016B8D7C8D8A899B890E94AC0590935E0180935D0141
:201D000021E001C020E08091590190915A01A0915B01B0915C014C895D896E897F8984179A
:201D20009507A607B70730F54093590150935A0160935B0170935C016F817885888999893D
:201D40000E94AC0590935E0180935D019801A0E1B7E20E94563420911B0130911C0140E093
:201D600050E00E941834205F384D3093600120935F0103C0222309F493C3C0901401D090EA
:201D80001501E12CF12C9301A0E1B7E20E945634A70196010E9418343093620120936101C1
:201DA0009201A0E1B7E20E945634A70196010E941834309364012093630146CF51E6651617
:201DC000710408F06DC061EDA61667E0B60608F467C085E080931A0182E180931901C50150
:201DE00086509F4FAA89BB898A179B0720F483E18093190116C00091140110911501B501D7
:201E00008A899B890E94AC059C01D8010E945634950140E050E00E94183430935E012093ED
:201E20005D01BB81B770DB2E822D806480937C005BE0F52EAA24A394B12C0FEF13E0A89548
:201E400061E08C814ED5E4B886B18D21E9F3EE85E4B980917A00806480937A0080917A001D
:201E600086FDFCCF80917800909179009801281B390BA20EB31EFA9411F7C501880F991FA5
:201E8000880F991F69E070E00E94F1337093640160936301809168018F5F80936801D4CE4F
:201EA000E4B8F5B8882D0E943F057C01822D0E94430598878F830E94A7055C01CE14DF0487
:201EC000B8F4B301C7010E94AC058C0180911401909115019C0140E050E060E871EA83E0AA
:201EE0009CE10E941834D8010E946B3495011FC03A8534B94C8145B9882D0E943F057C0159
:201F0000822D0E94430598878F830E94A7058C01C7016E147F0410F486199709B8010E94B1
:201F2000AC059C01A4E6B0E00E945634980140E050E00E9418342A873B874C875D875B8130
:201F400057B918B86D8164B965B9892D0E943F058C01822D0E9443056C01882D0E944305AA
:201F6000998B888B003371E1170708F0C1C1898185B9892D0E943F055C01998194B9892DAF
:201F80000E943F059C0115B881E02A8F398F0E940B05A981A5B9892D0E943F052A8D398DBC
:201FA0002034364008F05FC08133914108F45BC0C8018A569F4FA816B90608F054C086E01D
:201FC00080931A0180914E018F5F80934E0168897989C6010E94AC05909344018093430157
:201FE00068897989C8010E94AC0590934A018093490114B815B8FB81F8B981E00E940B052E
:20200000298124B9892D0E943F05853F910508F055C23D8134B9822D0E943F05813D934063
:2020200008F44CC2892D0E9443058D3D924008F445C2698164B9892D0E943F058D3D924018
:2020400008F43CC2898185B981E00E940B0515B8892D0E943F05853F910508F02FC287E018
:2020600080931A012BC29B8197B9AC81A4B9A5B981E00E940B05B985B4B9B5B9892D0E946D
:202080003F055C010E94A705998B888B822D0E9443059E838D830E94A7056C01882D0E943E
:2020A00043058C01EEEFCE16E9E0DE0608F4B4C084E080931A018CE080931901B30188897D
:2020C00099890E94AC055C0180911B0190911C019C0140E050E060E871EA83E09CE10E94B1
:2020E0001834D5010E946B34960140E050E00E94183480914E01882369F080913F019091D2
:202100004001A0914101B091420182179307A407B50728F520933F013093400140934101C4
:2021200050934201B8018D819E810E94AC05909344018093430128893989A0E1B7E20E9452
:20214000563420911B0130911C0140E050E00E941834309346012093450121E001C020E047
:2021600080913F0190914001A0914101B09142014A855B856C857D8584179507A607B70771
:2021800028F540933F01509340016093410170934201B7018F8198850E94AC0590934401D0
:2021A000809343019701A0E1B7E20E945634209114013091150140E050E00E941834205F90
:2021C000384D309346012093450103C0222309F476C19301A0E1B7E20E945634209114019B
:2021E0003091150140E050E00E94183430934801209347019201A0E1B7E20E945634209139
:202200001B0130911C0140E050E00E94183430934A012093490152C151E66516710408F049
:2022200067C06889798969347D4008F461C085E080931A0182E080931901C80186509F4F5E
:202240008A159B0520F483E08093190117C0E0901B01F0901C01B801C5010E94AC059C012C
:20226000D7010E945634A889B9899D0140E050E00E9418343093440120934301032D077065
:20228000822D806480937C001BE0EE24E394F12CA89560E08C8125D3B985B4B9B5B986B1A9
:2022A0008023E9F7E981E4B980917A00806480937A0080917A0086FDFCCF80917800909115
:2022C0007900E80EF91E115019F7C701880F991F880F991F69E070E00E94F13370934A01F4
:2022E0006093490180914E018F5F80934E01E6C017B818B814B815B817B8F7EC6F16F1E00B
:202300007F0608F4BFC018B82F8524B918EC0B81032907B981E00E940B053B8137B9892D6B
:202320000E944305429710F0115099F74F8544B945B961E08C81D5D2892D0E943F056C011C
:20234000588D54B915B837B838B860E08C81C9D2882D0E943F050E94A7055C016E8564B9A1
:20236000882D0E9443058C01892D0E943F05B8010E94AC058C01882D0E9443057C01892D2A
:202380000E943F05B7010E94AC0598012C5E3F4F2817390708F479C018B87B8177B98981E1
:2023A00084B985B961E08C819CD2882D0E9443057C01892D0E943F05B7010E94AC057C01A6
:2023C0000817190750F49F8594B995B9892D0E943F059C01560187010EC0A88DA4B915B876
:2023E00037B838B860E08C817CD2882D0E943F050E94A7059C01083EB3E01B0730F4C801F5
:2024000064E670E00E94F13306C0B80184E0769567958A95E1F7C8018759910989389141A5
:2024200088F52017310770F5C501B3E096958795BA95E1F7893C910510F088EC90E08A0DAE
:202440009B1D80179107F0F46A157B05D8F480911A01833018F483E080931A018091180140
:20246000E82FF0E0DF01A757BE4F9C9216968C92EE0FFF1FEB56FE4F118300838F5F8093D1
:20248000180103C0682D892D28D017B818B814B815B88EE20E94D8016D96E2E10C941C3543
:2024A000809168018F5F80936801222371F3209265018092660190926701E7CF21E08091AC
:2024C0004E018F5F80934E012223F9F220924B0190924C0180924D01D8CFA0E0B0E0E3E7DF
:2024E000F2E10C940235782E662EA895262F30E0F901E457FE4F549033961491482F50E0DB
:20250000FA01E457FE4FD4913396C4916091680180914E0190E0860F911D892B09F0DCC1FE
:20252000A89580911E0190911F01880F991F880F991F9093300180932F0180916D01909118
:202540006E01880F991F880F991F90932E0180932D018EEB80932B0100911801E9E8F1E0D7
:202560006FE871E0DB01240F351F8A2F861B801748F441918D9190E0840F911D821793074F
:20258000A1F758C018B817B9D4B9D5B918E1D12E00E010E0862D0E943F05982E892E872D3E
:2025A0000E9443057C01801B910B97FF03C091958195910903972CF0A895DA94D9F187019B
:2025C000E9CFDD0F15B8D4B9872D0E943F058135910580F5D5B9872D0E943F058C01C7B96D
:2025E000C8B915B854B8C8E14C2EC12CD12C872D0E943F05B82EA92E862D0E944305EC0193
:202600009C012C193D0937FF03C0319521953109233031051CF5550C54B8862D0E943F0543
:202620006C0180ECE81684E4F806E8F4053881E01807E8F080911E0190911F019093300127
:2026400080932F0180916D0190916E0190932E0180932D0189E180932B013EC1A8954A94D2
:2026600049F36E01C4CF003B8DE4180718F7C43A82E0D80708F061C088E9C816D104D0F204
:20268000C8010E94A705AC019801A8E9B7EB0E9456349A0140E050E00E94183449015A0100
:2026A000C6010E94A7059C01A8E9B7EB0E945634960140E050E00E94183408378FE0180767
:2026C00070F4C501B401B2E0660F771F881F991FBA95D1F7620F731F841F951F12C088E76D
:2026E000C8168FE0D806A0F4CA01B901A2E0660F771F881F991FAA95D1F7680D791D8A1DF1
:202700009B1D25E030E040E050E00E94183408C0280D391D4A1D5B1D56954795379527952D
:20272000A4E6B0E00E946B344B015C018CEA880E8DE0981EA11CB11C78C0692D782DE6166D
:20274000F70608F4B7010B2D1A2D0C171D0708F48E016B016E157F0508F46701E0901B0114
:20276000F0901C01C6010E94AC059C01D7010E9456344B015C01C6010E94A7059C0140E086
:2027800050E0C501B4010E94183449015A017801C017D10708F47E01C0911401D09115017B
:2027A000B701C8010E94AC059C01DE010E945634870120E030E0A90198010E94183488E765
:2027C000C8168FE0D80670F4C501B401E2E0660F771F881F991FEA95D1F7620F731F841FD6
:2027E000951F12C088E7E8168FE0F806B0F4CA01B90152E0660F771F881F991F5A95D1F7FD
:20280000680D791D8A1D9B1D25E030E040E050E00E94183449015A0108C0820E931EA41E8B
:20282000B51EB694A7949794879410911A01143008F000CF7A94760C872D90E0EC01CD5A6B
:20284000DE4F2881880F991F880F991FFC01EE55FE4F2223D1F1C080D180E280F380A50164
:2028600094012C193D094E095F0957FF07C050954095309521953F4F4F4F5F4FAAE0B0E033
:202880000E946B34A70196012C593F4F4F4F5F4F280D391D4A1D5B1D0E941834232B242B64
:2028A000252B09F0C7CE133019F081E080931A0182E0888380916F01E82FF0E0EA5AFE4FF9
:2028C00070828F5F80936F01B5CE80829182A282B38281E08883AECECDB7DEB7E0E10C9442
:2028E0001E35CF93C82FC09595B160FF02C0982B01C09C2395B994B1982B94B982E00E9486
:202900000B0584B18C2384B985B18C2385B9CF910895A0E0B0E0EFE8F4E10C9409358AE062
:20292000D82E9FE3B92E29E0C22E17B818B815B8B4B880E00E943F058C0181E00E94430539
:20294000EC0182E00E94430520911A01293079F417B814B81093040100930301D093060168
:20296000C0930501909308018093070156C00430110540F4C430D10558F48430910540F390
:2029800021E00AC021E0083E134018F020E001C021E0C83ED34008F42260883E934008F4DC
:2029A000246027B9C0E0D0E0A89580E00E9437057C0181E00E9443058C0182E00E94430547
:2029C00024E1E21625E0F20608F4389A043135E0130708F4399A843125E0920708F43A9AD9
:2029E00036E0E316F10428F40630110510F4069738F02196C43F81E0D807B1F6C0921A0194
:202A000000E010E00C171D0729F00E94F8040F5F1F4FF8CFDA9409F088CFCDB7DEB7E9E0A5
:202A20000C942535CF92DF92EF92FF92CF9320917301309174014091750150917601C0910B
:202A400085018AE0C82ED12CE12CF12C8C2FCF5F213A96E8390791E04907510538F0CA015D
:202A6000B901A70196010E941834F0CF80938501A0912F01B09130010E946B3428E833E1DF
:202A800040E050E00E94183420937301309374014093750150937601CF91FF90EF90DF9019
:202AA000CF900895A4E0B0E0E8E5F5E10C940635982E862E8FEF860F992D990F990D890F4F
:202AC00080935001E92DF0E0E457FE4F1491E62FF0E0E457FE4FF490E62FF0E0E157FE4F24
:202AE000049180911A01813009F4A7C2409118018FE891E065E971E0DC012A2F281B2417D9
:202B0000A0F42D9128110EC09D0127503109F9012081291107C0FB01208131812C3D354044
:202B200008F48BC26E5F7F4FE8CF1092800110927F0181EF8093850110927301109274017F
:202B40001092750110927601E4DE18B807B9F4B8F5B8892D0E9443057C01882D0E944305DD
:202B6000E81AF90A14B81092520110925101C12CD12C8091510190915201843F914050F501
:202B800015B914B90E94F20414B815B80E94F904A895892D0E9443056C01CE18DF088091A2
:202BA0005101909152018E37910528F02BE4C216D1040CF43EC25DE2C51651E0D50684F482
:202BC000809151019091520101969093520180935101CFCFFDE2CF16F1E0DF060CF429C2A9
:202BE0008091510190915201892B21F0C60100E010E006C025E1C21625E0D206BCF385C02D
:202C000020915101309152012017310758F00E94F304892D0E9443058E199F09A8950F5FB3
:202C20001F4FEECF8601081B190B1016110694F4093C11050CF0FDC128EE33E0D8010E941D
:202C400065349601442737FD4095542F0E941834790102C0E12CF12CA0905101B0905201E4
:202C60005FEFA51AB50AC501A0E0B0E080937B0190937C01A0937D01B0937E01C601800FBA
:202C8000911F27D29C01D5010E94563460937B0170937C0180937D0190937E016093730163
:202CA00070937401809375019093760187EF80938501B8DE20917301309174014091750132
:202CC0005091760185E293E029833A834B835C830E948335A8EEB3E0A81BB10987FDB395E0
:202CE00029813A814B815C810E94753424E630E040E050E00E9418342093730130937401C4
:202D0000409375015093760152C103DE15B887E087B918B8F12EFF0CF4B880E480937B0010
:202D200084E580BF892D806480937C0087E180937A000E94FC0410925201109251011092A0
:202D40008000109285001092840087E286BB81E280936F0081E080937001F5B890911A0149
:202D600080938100953059F481E090E0092C01C0880F0A94EAF78095877087B901C007B903
:202D8000F89483B7817F83BF80917001882389F083B7816083BF7894889583B78E7F83BF76
:202DA000F894A8958091510190915201803A9F4059F7789410928100E0908600F09087005E
:202DC00010926F0087E980937A0014B815B8892D0E9443052091330130913401821B930B96
:202DE0000C9690938801809387018091510190915201803D974008F01CC180915101909126
:202E0000520190937E0180937D01F0927C01E0927B0184EF8093850180915101909152015C
:202E200082349105C8F060917B0170917C0180917D0190917E0124E630E040E050E00E9468
:202E4000183420937B0130937C0140937D0150937E0186EF80938501A0917101B09172019F
:202E600020917B0130917C0140917D0150917E010E946B3420ED37E040E050E00E94183495
:202E800020937B0130937C0140937D0150937E01209373013093740140937501509376010E
:202EA000C1DD80918501843F09F071C0C0907301D0907401E0907501F090760120EAC21698
:202EC0002FE0D206E104F104C0F4A70196012C543F4F4F4F5F4F60EA7FE080E090E00E94C9
:202EE00018342C0D3D1D4E1D5F1D20937301309374014093750150937601C0907301D090E6
:202F00007401E0907501F0907601C114D10451E0E506F10428F4D092B301C092B20106C0A7
:202F200081E090E09093B3018093B2018091500190E08E5B9C4F0E948335482F50E060E03C
:202F400070E04C155D056E057F0568F4C41AD50AE60AF70AC0927301D0927401E0927501D8
:202F6000F092760114C084E1C80ED11CE11CF11CC416D506E606F70610F40E94070B10925A
:202F8000730110927401109275011092760114B98091730190917401A0917501B09176012E
:202FA0004997A105B10508F444C0E12CF12C80911801882321F080911A018530D1F588E0B6
:202FC00080931A0120918501809186018217BCF028132FC040917301509174016091750183
:202FE000709176018091770190917801A0917901B0917A0184179507A607B707D0F4809158
:20300000730190917401A0917501B09176018093770190937801A0937901B0937A01209302
:203020008601F0928201E0928101809283019092840117B818B814B815B82496ECE00C9475
:2030400022351F920F920FB60F9211248F939F93B59904C080917001811109C0B59B10C0C9
:2030600080918600909187008A3F910548F48091510190915201019690935201809351012D
:203080009F918F910F900FBE0F901F9018951F920F920FB60F9211248F939F931092700125
:2030A000B09B10C080918600909187008A3F910548F4809151019091520101969093520137
:2030C000809351019F918F910F900FBE0F901F9018950F9221E08C32920710F48CE291E0F8
:2030E0008C52914069E170E00E94F13399E16B3210F0982F6BE2981BE6ECF2E0E60FF11D3C
:20310000E60FF11D9F93CF010E948335482F3196CF010E948335582F3196CF010E94833570
:20312000282F3196CF010E948335382F6F91421B530B649FC001659F900D11240C9669E19F
:2031400070E00E94F133620F731FCB010F900895A0E0B0E0EEEAF8E10C94063588E893E1CE
:2031600090931F0180931E019093300180932F018EEB80932B0118B880E187B90E94010572
:2031800017B884E00E943F05AC018B5C9840833F9140A0F481E080933A0120912F01309132
:2031A0003001AFEBB9E00E9456349A0140E050E00E94183430931F0120931E0180911E01C1
:2031C00090911F019093300180932F018EE00E9443058EE00E943F059093340180933301CC
:2031E0000E94130696DB18B8C1E0C7B985E185B9C4B980E00E943F057C0102E007B914E038
:2032000014B981E00E943F05E80EF91E17B980E1D82ED4B882E00E943F05E80EF91E15B8A8
:20322000C8B9C7B9C4B980E00E943F050E94A705EC0108B907B914B981E00E943F050E9458
:20324000A705C80FD91F18B917B9D4B882E00E943F050E94A705C80FD91F17B818B814B8F6
:2032600080912F01909130014C01880C991C880E991E8E189F088C1A9D0AA12CB12C9701FC
:20328000A0E9BAE10E945634A50194010E94183469017A0130933901209338019E01A0E9BF
:2032A000BAE10E945634A50194010E94183430933201209331012057354E30931C012093B6
:2032C0001B0180E7C81A85EED80AD0921501C092140189E180932B01CDB7DEB7ECE00C9427
:2032E0002235FF920F931F93CF93DF93C82FD62FF42E0E94E30186E191E00E945002F3D18A
:203300006D2F8C2F0E94252CC1E00091B6011091B7012091B8013091B901011511052105EA
:20332000310509F0C0E08091010187FD02C0C11104C082E191E00E9450028D2F0E94E301C5
:20334000C11106C00E94E601809156010E945203FF2049F080913B018D3028F490E08A5B1A
:203360009C4F0E94500280E00E94D302C1111BC06091B6017091B7018091B8019091B901E4
:2033800003E028E447EF0E94D50385E291E00E94500287E593E00E948B3522E046E464EF02
:2033A0000E94C4041AC0809156010E945203809101018E3F94F485E491E00E945002609143
:2033C000090170910A0180910B0190910C0103E028E4409101010E94D5038091AE0190916F
:2033E000AF01A091B001B091B101892B8A2B8B2BF1F080E00E94D3026091AE017091AF0120
:203400008091B0019091B10104E028E440E00E94D50380E291E00E94500223E040E26FEF43
:203420008091B4019091B5010E94C40407C080E00E94B30280913E01811102C00E94AD0212
:20344000CDB7DEB7E5E00C9429350F931F93CF93DF93D82F0E940202809183010E94E301A0
:2034600081E691E00E9450020ED5609183018091840161D39093800180937F0111E08A3F6D
:203480009F4F08F010E0C1E02091810130918201232B09F4C0E0112371F0CC2341F021E09D
:2034A00030E0D11102C020E030E0232B21F087E191E00E945002809184010E94E301DD2300
:2034C00059F090913B018DE0891B0E94E90187E790E00E94500215C020918101309182018B
:2034E000232B69F088E491E00E94500222E045E26FEF80918101909182010E94C4040E948A
:20350000AD020E94090260917701709178018091790190917A0104E026E4409186010E945D
:20352000D503112369F080E591E00E94500222E044EF6EEF80917F01909180010E94C4042D
:203540000E94AD02DD2391F0CC2381F080E00E94D30289E491E00E94500222E045E26FEF09
:2035600080918101909182010E94C4040E94AD02DF91CF911F910F9108958F3021F49091A7
:203580003501913011F08F5F089580E00895CF9382E890E00E943226C0E00E94BB0660E032
:2035A00082E00E946D1262E080E00E946D120E94020280916F01882329F041E062E080E017
:2035C00090DE0FC082E890E00E94500280E593E00E9450020E9409028FE30E94D8010E94D8
:2035E000AD0288EE93E00E94B505811105C08C2FC4DFC82F8A3F88F20E943102CF91089516
:203600000F931F93CF93DF93C0E0D8E012EF0DE00E94BB0660E082E045DAD0931A01809189
:203620008501843FE1F440917301509174016091750170917601443651056105710578F4DA
:2036400040E060E082E00E94B62960937301709374018093750190937601109385018091EB
:203660008501823FACF0809386014091730150917401609175017091760140937701509325
:2036800078016093790170937A0181E0DEDE18C00E9402028BE790E00E94500280913B0108
:2036A000902F981B892F0E94E90187E790E00E9450020E9409028FE30E94D8010E94AD0297
:2036C00080ED97E00E94B505811106C08C2F55DFC82F8A3F08F49CCF0E943102DF91CF9197
:2036E0001F910F910895A3E1B0E0E9E7FBE10C94003582E08093010180911A01813009F0FB
:2037000016C280916F01813009F011C22090560124E0229EF0011124EE55FE4F808191813F
:20372000A281B381893032E59307A105B10508F0FEC19B8B8A8B312C61E0822D631528F09D
:203740000E944803B82EA92E03C00E9448035C01EA2DF0E0E157FE4F7490EB2DF0E0E4571F
:20376000FE4FE49115B818B88A899B89803F910590F430FC10C00091140110911501005928
:203780001A4181E090E00B2C01C0880F0A94EAF7872987B906C0E4B977B800911401109126
:2037A000150134E1632E8B2D0E943B054C018A2D0E94430524E08216910410F4049710F0F5
:2037C0006A9489F730E430937B0064E560BF8B2D806480937C0087E180937A00E12CF12C67
:2037E00010928000109285001092840087E286BB0E94FC04932D9170998B30FC05C081E8CF
:203800008093810078B808C078B80E94050580E286BB81E88093810046B345FF12C018B8C1
:203820001092810080E286BB80918600909187006C0120918400309185008217930768F010
:2038400013C040FFE9CF21E026BBA895C70101967C01883C910501F7E2CF40FF05C031E08B
:2038600036BB6FEFE61AF60A87E980937A0024E1722E8B2D0E943B054C018A2D0E944305CF
:2038800024E08216910410F4049710F07A9489F780903801909039018A899B89880E991EA3
:2038A000800E911E209116013091170100399AE11907B0F461EEC616D104E104F10438F4AC
:2038C000C60165E070E00E94F133645101C069E128523109261B310967FD339586E009C07C
:2038E000C40160EE75E10E94F13387E0860F285D3F4F90E0A0E0B0E08C159D05AE05BF0550
:2039000028F4C81AD90AEA0AFB0A03C0C12CD12C76018989882329F096E4C90ED11CE11C98
:20392000F11C68ECE616F10418F0C12CD12C76018BE0C816D104E104F10428F091E0C91A68
:20394000D108E108F10840912F0150913001A12CB12CA8EEB3E00E9456342B013C01980198
:20396000DA010E945634A50194010E94183444275527C301B2010E941834C9010E946B06EE
:20398000FC01A5019401C701B6010E94D6334B015C019F01A4E1B0E00E9456346B5F7F4FA3
:2039A0008F4F9F4F2AE030E040E050E00E94183444275527C501B4010E941834832D90E073
:2039C000E1E0F0E0EC0FFD1F64E0369EE00DF11D112420833183428353836989611117C0CA
:2039E00068E1C616D104E104F10488F0FC013196EE0FFF1FEE0FFF1F81E090E08C0F9D1F59
:203A0000E80FF91F20833183428353833394A895339493E0931508F08FCE18B884E00E9494
:203A20000B0521E04D815E816F81788589819A81AB81BC8184179507A607B70708F020E0B3
:203A40004D855E856F85788989859A85AB85BC8584179507A607B70710F032E001C033E096
:203A6000E22FF0E0EE0FFF1FEE0FFF1F81E090E08C0F9D1FE80FF91FDC0194E0399FA00D22
:203A8000B11D11244D915D916D917C9180819181A281B381481759076A077B0708F0322FD7
:203AA000E1E0F0E0EC0FFD1F24E0329FE00DF11D112480819181A281B381809309019093AF
:203AC0000A01A0930B01B0930C0130FD09C02A893B89203F310520F48BEF8093010117C0D0
:203AE0002CEF20930101BC01CD016B5F7F4F8F4F9F4F2AE030E040E050E00E9418342093FC
:203B0000090130930A0140930B0150930C018091090190910A01A0910B01B0910C01892B78
:203B20008A2B8B2B11F41092010117B814B86396E2E10C941C35AEE1B0E0E1EAFDE10C94C1
:203B40000035662EB82E860F898320911A01283059F5209177013091780140917901509114
:203B60007A0157FD15C01091860109C0CA01B9012AE0312D412D512D0E9418341F5F173F15
:203B8000ACF391F4243160E036074105510518F48FEF9FEF45C1173F39F480E028178DE7DF
:203BA00038074105410510F020E03DE72C8B3D8B27EDA22EEFE8F1E0E60DF11D8591806014
:203BC0008E87EFE8F1E0EB0DF11D859180608F87ECE8F1E0E60DF11D7590ECE8F1E0EB0DCE
:203BE000F11DC59090EC692AB92A81E0E82EF12C012D112D8E831F82188619861A861B8640
:203C00001C861D86188E198E1B8E1A8E0E94891480E088B960927C000E94FD043F8537B91C
:203C200075B874B856E05A95F1F70000000014B815B8DD243E8537B975B874B860927C000A
:203C4000A895A0927A0080917A0086FDFCCF2090780030907900B0927C004C2DE5D02091A4
:203C6000780030917900288B398B3F8537B9C5B8C4B8A895B0927C00A0927A0080917A003C
:203C800086FDFCCF609178007091790060927C00472DCAD0409178005091790014B8CB013C
:203CA000820D931DE80EF91E011D111DEA82FB820C831D8388899989840F951F2E813F816B
:203CC00068857985280F391F611D711D2E833F836887798722E32417150650F075B874B808
:203CE0000E94070514B815B8888D8395888F07C0483E73E0570718F08A8D83958A8F8889DA
:203D000099892817190660F03E8537B9C5B8C4B80E94070514B815B8898D8395898F07C0D3
:203D2000883E73E0970718F08B8D83958B8FD3945D2D5F3F49F05F3731F45C2D550FC50E37
:203D4000572D550F750E76CF4090380150903901440C551C9201E4E0240D351DEA95E1F79E
:203D60002901570168016E807F808884998420911A012830C1F46C897D89812D912D65504D
:203D80007040804090409B01AC010E94D6339B01AC0160E779E786E190E00E941834621ABE
:203DA000730A840A950AA614B704C804D90428F46A187B088C089D0803C0662477244301B5
:203DC000B20180E090E09301A4010E94D6339501A6010E94183480E293E07981870F911D3E
:203DE0000E948335682EC90160E170E00E94F133260F371FC9016816190618F4861991097B
:203E00000FC08C5E9F4F8615910540F48C899D89843981E1980710F00E94070B812D912D7D
:203E20006E96E2E10C941C35109281001092800010926F0010928B0010928A0057E056BBD3
:203E40005FEF509385005093840055E050937B0057EB50937A0051E0509381005EE45A954D
:203E6000F1F745B944B95DE05A95F1F70000000014B815B81092810080917A0084FFFCCFB6
:203E800080937A000895A4E0B0E0E9E4FFE10C9408358091810190918201892B09F0B2C004
:203EA000E0918301F0E0E157FE4F0491E0918401F0E0E457FE4F14910E94891418B815B854
:203EC00007B914B9809184010E9443055C01009186018CE0800F843008F094C0015F8091F4
:203EE000770190917801A0917901B0917A012AE0C22ED12CE12CF12CBC01CD016B5F7F4F05
:203F00008F4F9F4FA70196010E9418340F5F073019F0DA01C901F0CF293883E1380741054C
:203F2000510508F06FC02530310508F46BC015B914B900E010E00217130768F429833A83EF
:203F40004B835C830E9403050E5F1F4F5C814B813A812981F0CF14B815B8A89585E0809314
:203F60002B018091840129833A834B835C830E94430529813A814B815C81A816B90620F4E0
:203F80007C01EA18FB0802C0E12CF12C00E010E00217130768F429833A834B835C830E949C
:203FA00003050F5F1F4F5C814B813A812981F0CF809184010E94430529E120932B01A895AA
:203FC000A816B90618F48A199B0902C080E090E08E159F0588F49701281B390B69F0A4EFB1
:203FE000B1E00E945634970140E050E00E94183430938201209381010E94891417B818B8D5
:2040000014B815B82496EAE00C942435A7E0B0E0ECE0F0E20C9400358DEB91E023D684E2B8
:2040200093E00E94833501E010E002C0000F111F8A95E2F70130110551F06BE080E00E9414
:2040400021028FE20E94D801C8010E94160320EF2B8354980E94F80414BC16BC10920E0133
:2040600010920F01109210011092110131E035BB30936E00109280008EE291E390938B0041
:2040800080938A00E1E0F0E0F0938900E0938800109285001092840083B5816083BDF6E06F
:2040A000F6BB22E020936F00789434E03093810012E31A820E94F10480916F008D7F809300
:2040C0006F00B09B05C065E066BB84E080936F00A8954F9902C091E09A8385B581112FC0E5
:2040E00015BC86B580930E010E94310286E60E94D8010E94FA0184E293E00E948335E1E045
:20410000F0E002C0EE0FFF1F8A95E2F7FF83EE8320910E0130910F014091100150911101A1
:20412000DF010E946B3447E00E94D904549880918100882341F08FE30E94D80104C011504C
:2041400009F0B8CFCDCF1092810010926F0020910E0130910F014091100150911101DA01CE
:20416000C9010197A109B1098336934CA105B10508F0FFC0AAE0B0E00E946B346C5E7F4FDB
:204180008F4F9F4F24E130E040E050E00E941834C901880F991F90936A01809369015498F0
:2041A0000E94F80416BC10920E0110920F01109210011092110121E025BB20936E00109221
:2041C0006C0110926B0134E03BBB80916800846080936800789480916D00806180936D0097
:2041E00019820E94F104A8954F9902C061E06A8380916D0084FF05C089818F5F89838A3FE5
:2042000081F715BC80916D008F7E80936D00809168008B7F8093680086B580930E010E944D
:20422000090284E50E94D8010E94FA0160910E0170910F018091100190911101E0916901B1
:20424000F0916A01FD83EC8320E137E240E050E00E947B34EC81FD815F01C12CD12CE12C86
:20426000F12C00E010E00E94A434EE81FF815F010E94A43449011A012B013C012C813D81D5
:204280002038310530F007E023E745EFB401C10116C084E6A82EB12CC12CD12CE12CF12CCD
:2042A00000E010E09401C3010E94A434E22FF42F07E023E747EF6E2F732F8F2F952F0E949D
:2042C000D50339813A3F21F48FE30E94D80151C09401A101B201C301263E354B4105510592
:2042E000610571058105910509F008F442C00E94020286E60E94D8010E94FA019401A1016E
:20430000B201C301540161017201830121153A4C4A495B43610571058105910589F080F0AA
:2043200020E030E04AE85DE568E775E483E691E00E94A434E22FF42F07E028E44AEF0FC0CE
:2043400020E030E44AE750E163EF7AE580E090E00E94A434E22FF42F07E028E44DEF6E2FEC
:20436000732F8F2F952F0E94D5038AE70E94D801549810926E0080ED97E00E94B5052A81CC
:20438000820F29F43B8131503B83311162CE2796E2E10C941C351F920F920FB60F921124A4
:2043A0008F939F93AF93BF93789480910E0190910F01A0911001B09111019F5FAF4FBF4F19
:2043C00080930E0190930F01A0931001B0931101BF91AF919F918F910F900FBE0F901F9055
:2043E00018951F920F920FB60F9211248F9386E085BD8F910F900FBE0F901F9018951F9221
:204400000F920FB60F921124A8951092810015BC0F900FBE0F901F9018951F920F920FB6B1
:204420000F9211242F933F938F939F9380916B0190916C01892B11F481E085BD20916B013A
:2044400030916C018091690190916A012817390730F015BC80916D008F7E80936D0080919B
:204460006B0190916C01019690936C0180936B019F918F913F912F910F900FBE0F901F9002
:2044800018958D3008F08D50811103C089E292E03BC0823019F48DEB91E036C0813019F454
:2044A00084EB91E031C0833019F480E092E02CC0843019F485EF91E027C0853019F48DE8E9
:2044C00090E022C0863019F482E890E01DC0873019F48BE790E018C0883019F484EE91E0EA
:2044E00013C0893019F485ED91E00EC08A3019F481E292E009C08B3019F487E192E004C0A7
:204500008C3021F48CE092E00E9450020C94AD0208950F93CF938DE890E0A4D3C0E010926A
:204520001A0160E082E0BAD380911A018830D1F50E94020283E40E94D8010E94FA01609171
:204540007701709178018091790190917A0103E026E4409186010E94D5030E94AD02609141
:20456000830180918401E7DA9093800180937F010E94090281E591E00E94500280917F0120
:20458000909180018A3F2FEF920730F422E044EF6EEF0E94C40403C08FE30E94D8010E9487
:2045A000AD020AC00E9402028DE890E00E9450020E94AD020E94DA0288EE93E00E94B505EF
:2045C000811107C08C2F0E94BD1AC82F8A3F08F4A6CFCF910F9108951F93CF93DF9381E297
:2045E00092E040D3C0E0D0E01AE00E94090289E391E00E94500283E00E943F0563E09C0145
:20460000129FC001139F900D11240E94CF040E94AD0288EE93E00E94B505882339F08F3501
:2046200008F0DF5FD53048F4C0E001C0D0E08C2F0E94BD1AC82F803FC0F2DF91CF911F91D6
:204640000895A5E0B0E0E7E2F3E20C94003580E092E008D380E18093800010926F0081E022
:2046600090E0909389008093880010928B0010928A0083E086BB1092820088E08093810066
:2046800015B881E184B918B881E087B9229A89E080938100212C1B822AE0298333243394C6
:2046A000812C912C5401839411E1822D90E00A966EE170E00E940534662E562E3B816317AB
:2046C00089F00E94020280E092E00E945002712C751428F48EE20E94D8017394F9CF0E9457
:2046E000AD026B821231C8F0C701B601A50194010E9418342B013C01832D69810E94E533BE
:20470000A92FB0E0A50194010E946B346B017C01C40CD51CE61CF71C0CC0832D69810E94EE
:20472000E533A92FB0E0A50194010E946B346B017C010E9409028981381208C081E0123127
:2047400008F480E08A83811106C001C01A82163120F48EE303C08CE301C082E50E94D8019A
:20476000412FC701B6010E94D904C701B601735D8E4C9E4FA7019601220F331F441F551F1C
:204780000E941834CA014F3F510539F030F08DE08093810080E094E01FC04034510530F095
:2047A0008CE08093810080E091E016C04830510530F09BE09093810080E490E00DC0892BF0
:2047C00031F0EAE0E093810088E090E005C0F9E0F093810081E090E02C01612C712CCA018D
:2047E000B901A30192010E9418342150310930938900209388008091880090918900892BB1
:2048000031F421E030E0309389002093880080918800909189009D838C8360E876E988E951
:2048200090E0A30192010E941834A4E6B0E00E946B34EC81FD8131969F0140E050E00E9444
:20484000183429013A01A4E6B0E0A70196010E946B34461A570A680A790A02E228E44EEF2A
:20486000C301B2010E94D5038AE70E94D8010E94AD0280ED97E00E94B505882309F442C020
:20488000883C58F0109281001092800017B814B822982596E2E10C941C35813578F1FA8169
:2048A000FF23D9F01150C501B4012AE030E040E050E00E94183449015A01C701B6010E9413
:2048C0001834CA01B9012AE030E040E050E00E941834362E2AE0298331C0163130F51F5FBA
:2048E000163111F435E13983AAE0B0E0A50194010E946B344B015C01312C20C08B3008F06B
:204900003394212C832D90E0E9816E2F70E06F5F7F4F0E940534382E822D0E94BD1A282EB1
:20492000FFEEF81708F0C1CEADCF2AE0298333243394812C912C5401839411E1212CB5CE0C
:20494000A4E0B0E0E6EAF4E20C94043585EF91E089D183E28093800010926F008FEF90E08E
:2049600090938B0080938A0083E086BB1092820015B881E184B918B881E087B9229A81E02A
:2049800090E0909389008093880089E08093810010E000E0A2E37A2E612CB4E6CB2ED12C49
:2049A000E12CF12C88248A9483E0982EA12CB12C7016E9F183E6871510F4ECE97E0E272D12
:2049C00030E0AFEFB3E00E9456346E5C7F4F8F4F9F4FA70196010E94183430938B002093D8
:2049E0008A0029833A834B835C830E940902A8EEB3E029813A814B815C810E946B34615041
:204A00007E4F8F4F9F4FA50194010E941834DA01C90125E045E26FEF0E94C4040E94AD02EA
:204A2000F8E2F61518F48CE30E940B05072D80E496E00E94B505682E82E8861558F417B844
:204A4000109281001092800014B822982496EEE00C942035E2E3E61518F4FAE07F0E03C018
:204A6000662011F0739410E0812F0E94BD1A182F803F08F49DCFE3CF0F931F93CF93DF9347
:204A800084EE91E0EFD085E293E00E948335182F00E00E940902C12FDD27C7FDD09517FF39
:204AA0000BC08DE20E94D80123E045E26FEF882799278C1B9D0B04C023E045E26FEFCE01E0
:204AC0000E94C4040E94AD0280E496E00E94B505882331F0823888F48932C8F01F5F00E012
:204AE000113514F0155603C01C3E0CF41B59802F0E94BD1A082F803F60F2612F85E293E096
:204B00000E949035DF91CF911F910F9108951150E6CF0F931F93CF93DF9384EB91E0A2D0E1
:204B200084E293E00E948335182F00E0C1E0D0E00E94090223E040E260E0CE01012E02C0F8
:204B4000880F991F0A94E2F70E94C4040E94AD0280E496E00E94B505882331F0823888F49C
:204B60008932C8F01F5F00E0113820F41A3018F010E001C019E0802F0E94BD1A082F803FED
:204B8000B8F2612F84E293E00E949035DF91CF911F910F9108951150E6CF813011F4B9CF8A
:204BA0000895823019F480E031CA0895833011F448CD0895843011F4C3CE0895853011F496
:204BC000A8CC0895863019F40C94C71A0895873029F40E9431020C94001B0895883011F425
:204BE0004BCF0895893021F481E10C943D0708958A3011F4F1CC08958B3011F48EC1089588
:204C00008C3011F40C94E6060895CF93DF9384E392E028D0D0E0C0E00E9409028C2F31DC40
:204C200080E49FE10E94B5058111D0E090913501913009F4D0E0823340F0CC2379F08C2F35
:204C4000ACDF84E392E00ED002C08111CF5FDF5FD23820F4CD3000F3CD50DECF80E0DF91AA
:204C6000CF910895A2E0B0E0E8E3F6E20C940F3589839A830E94310289819A810E94500287
:204C800014E682E00E940B054F9902C01150C9F70E9409022296E3E00C942B35A4E0B0E0FF
:204CA000E4E5F6E20C940535882E762EE62FF0E0E157FE4F0491E82FF0E0E457FE4FB4906D
:204CC000E62FF0E0E457FE4F14911092800110927F01109273011092740110927501109296
:204CE000760187EF809385010E94891418B807B914B915B9882D0E9443058C01872D0E9442
:204D00004305081B190B14B8109252011092510120E030E09CE2E92EFF24F3944AE0A42E04
:204D200054E6952E8091510190915201843D904308F069C0B5B88091510190915201892BF2
:204D400089F06701C21AD30A6091510170915201A29EC001A39E900D11240E94F133C6166C
:204D6000D70650F4B4B80E94FC0414B88091510190915201019628C080915101909152010B
:204D80000B97C8F06091510170915201929EC001939E900D11240E94F1336C157D0558F419
:204DA000B4B80E94F10414B880915101909152018C599F4F09C0B4B80E94F70414B88091CB
:204DC0005101909152010A96909352018093510115B80E94FE04A895882D0E9443059C01A8
:204DE000201B310B80915101909152018B31964020F0253231050CF488C02D3281E03807EF
:204E00000CF490CF05C02D32F1E03F070CF47DC08091510190915201019729F4253145E0B4
:204E200034070CF072C00091510110915201000F111FA80160E070E040937B0150937C010B
:204E400060937D0170937E01C90168E270E00E940534C901860F971F0E9469189C01D80172
:204E60000E94563460937B0170937C0180937D0190937E016093730170937401809375017C
:204E8000909376010E9412152091730130917401409175015091760185E293E029833A8372
:204EA0004B835C830E948335A8EEB3E0A81BB10987FDB39529813A814B815C810E94753420
:204EC00020E137E240E050E00E9418342093730130937401409375015093760188E08093FD
:204EE0001A0120937701309378014093790150937A0180918501809386011092820110928D
:204F00008101709283018092840117B818B814B815B82496EDE00C942135A0E0B0E0E3E961
:204F2000F7E20C940B350E94310283E091E00E9450020E9409028FEB90E00E94500282E22C
:204F400093E00E94833523E040E26EEF90E00E94C40483E293E00E94833523E040E26EEF74
:204F600090E00E94C40481E293E00E94833523E044EF6EEF90E00E94C40488E99AE30E942A
:204F8000B5050E94310288EB90E00E94500223E044EF6FEF80913101909132010E94C40416
:204FA0000E94090281EB90E00E94500223E044EF6FEF80913801909139010E94C40488E960
:204FC0009AE30E94B5050E9431028DEA90E00E94500287E493E00E94833590E042970E9425
:204FE0001F0388E493E00E94833590E042970E941F0384E493E00E94833590E023E046E477
:2050000064EF42970E94C4040E94090283E00E94E90183E493E00E94833590E042970E943F
:205020001F0386E493E00E94833590E042970E941F0382E493E00E94833590E023E046E43A
:2050400064EF42970E94C40488E99AE30E94B5050E9431028BE290E00E94500289E493E0EA
:205060000E948B350E940B030E94090284E290E00E9450028BE493E00E948335992787FD27
:2050800090950E940B0360E081E00E942102F12CDF2CDD0CDF0CE12CDA94FE14D9F1CD2D88
:2050A000CE0DD0E0CC0FDD1FCE018C5C9C4F0E948B358C01CE018A5D9C4F0E948B35EC010D
:2050C0008091A101882339F088E99AE30E94B5050E94310203C080E00E94B30285EA90E0D1
:2050E0000E9450028F2D0E94E3018AE30E94D8018E2D0E94E30180E00E94B30223E040E275
:205100006EEFC8010E94C40423E046E462EFCE010E94C404E39483E0E812BFCFF394F81255
:20512000B7CF88E99AE30E94B505CDB7DEB7E7E00C942735A1E8B0E0E0EAF8E20C9406352B
:2051400010918901D0908F01F0909001A12EB12CC50184579E4F5C01912F9064992EEF2DF5
:20516000F0E0E457FE4F8491F501C490C82AF5012491220F282B90927C00ED2DF0E0E15797
:20518000FE4FE491E7B918B815B814B8CF57DF4F2883C158D0400E94FD04CF57DF4F28817C
:2051A000C158D040E22E022F40E4BE016F5F7F4F80E090E10E943400DE01559630E02AE07B
:2051C0008F2D90E0ED2DF0E04D915D915695479556954795042F341728F42F5F203419F0DA
:2051E000342FF2CF032F302F369536953695402F431B342F203409F452C0DE011196A20FCF
:20520000B11DA20FB11D4D915C915695479556954795431708F041C022E020931A01D09263
:205220004D0110934B01F0924C01E80FF91FEE5AFE4F10826D2D8F2D0E946D1280914D0156
:20524000E0914C01F0E0E80FF11DEE0FFF1FEE0FFF1FE256FE4FC080D180E280F380035245
:20526000202F30E0A4E6B0E00E9456344B015C019E2D8D2D7C2D6627A70196012057354EEC
:205280004F4F5F4F0E941834C501B4010E94183430934A012093490109C02F5FABCF80917E
:2052A0008F01D81203C0DF2CF82E59CFCF57DF4FECE00C94223508958F929F92AF92BF92C0
:2052C000CF92DF92EF92FF92AC016C01E12CF12C560199248824E52FFF279A01DA010E9494
:2052E00056349C013695279536952795C9019695879596958795BC01769567956E9FD0017F
:205300006F9FB00D7E9FB00D1124B901681B790BCB019A0164E0369527956A95E1F72E0FAC
:205320003F1F240F351F40E050E0280F391F411D511DCD0173E0969587957A95E1F7A81BCB
:20534000B90B2A0F3B1F411D511DC701B6010E94D633680D791D8A1D9B1DFF90EF90DF9019
:20536000CF90BF90AF909F908F900895A4E0B2E0ECEBF9E20C940035882E962EB42E0E94BA
:205380008914E82DF0E0E457FE4F1491612E660CE92DF0E0E157FE4FE491E7B915B814B943
:2053A000882D806480937C000E94FD042B2D2170A22EB0FE02C0F12E01C0F62C00E2702E77
:2053C00080E090E0C12EEF2C062D2F2D47EEBE016F5F7F4F0E9434007A9419F080E490E013
:2053E000F1CF14B8412C512C3201C12CD12C760146E4212CB0E83B2E463B09F441EC042F4D
:2054000010E0F801EE0FFF1F81E090E08C0F9D1FE80FF91F80819181AA2021F09101281B8E
:20542000390BC901CC5FDD4F4883C450D24044DFCC5FDD4F4881C450D240C80ED91EE11CE3
:20544000F11C9C01D8010E945634460E571E681E791E4F5F473E80F2C701B60126E930E074
:2054600040E050E00E941834ADE4B6E50E946B34A3019201261B370B480B590BF6E056954F
:20548000479537952795FA95D1F762E372E98DE99BE60E941834B1FC3EC09A94882D880FA7
:2054A000880D980E892D90E0880F991FAA2019F08A5D9C4F02C08C5C9C4FCF5FDD4F2883FD
:2054C000C150D240CE5FDD4F3883C250D240CC5FDD4F4883C450D240CD5FDD4F5883C350E3
:2054E000D2400E948B35CF5FDD4F2881C150D240CE5FDD4F3881C250D240CC5FDD4F4881BC
:20550000C450D240CD5FDD4F5881C350D240281B390B41095109CA01B901CC5FDD4FE2E145
:205520000C941C35A0E0B0E0E8E9FAE20C94053510E0712E770C710E00E07A94101709F440
:2055400040C042E0602F812F11DF4B015C0143E0602F812F0BDF6B017C010E94310285EAD8
:2055600090E00E9450020E94E601812F0E94E3018AE30E94D801802F0E94E3010E94E60162
:205580000E94090224E040E26EEFC4010E94C40424E046E462EFC6010E94C404C72DC00F39
:2055A000D0E0CC0FDD1FB401CE018C5C9C4F0E949E35B601CE018A5D9C4F0E949E350E9429
:2055C000AD020F5F033009F0B9CF1F5F133009F0B0CF0E9402028BEA91E00E9450020E949F
:2055E000AD0288E20E940B05CDB7DEB7EDE00C942135A3E1B0E0EFEFFAE20C9400359B8343
:205600008A8379876887CC24C394AC2CB12C63E0C69EA00111245D874C87F501EE0FFF1F4D
:20562000EE0FFF1FFF87EE87612C20E4722E1A8A412C512C1F821E82812C912C212C312C40
:205640001D821C82D12C1982E0E0F0E020E030E041E050E06FEF70E06A197B09798B688BD8
:205660006981062F10E088899989081719070CF0B7C0B8016A0D7B1D660F771F8A819B813C
:20568000680F791FDB018D919C91E80FF91FB801660F771F8A819B81680F791FDB018D91D1
:2056A0009C91280F391FB981BC1508F48CC07801EA18FB08EE0CFF1C6A817B81E60EF71E58
:2056C000D7016D917C91261B370BE81BF90B7F01E20EF31EC9018E1B9F0B8A879B87B701D4
:2056E0007695679576956795680F791F77FDA1C0E217F30708F06EC0BA89B13009F06AC058
:20570000B801A6E0660F771FAA95E1F77B8B6A8BBC01641B750B6817790770F0B6E0880FE5
:20572000991FBA95E1F780960E94F1334A895B89461B570B5B8B4A8B4C855D85E416F506D1
:2057400008F44EC04E855F8504171507C4F14A895B89DD20A9F04419550962E06D1550F48C
:20576000C3018096B30176956795860F971F84179507B0F1C51640F4CC24C394C50E45CF34
:205780005F834E83FD82EC828E0C9F1CD39451E05D15E0F46D2D70E061507109CB0195952B
:2057A00087954A895B89840F951F4E815F81841B950B0E94F1333B014A885B88170154E1DD
:2057C0005D1538F40DC04A875B8704C04A885B8817011A8A49814F5F49834A855B8540CF74
:2057E000A885B985AB2B61F1B1E0BD15D8F49401EC81FD812E1B3F0BA8EEB3E00E9456347F
:2058000094012219330940E050E00E94183488EE93E0821B930B0E946B06BC0188EB9AE756
:20582000E0D702C060E070E0A885B9856D937C9307C0E217F30708F463CFB1E0BA8BCACF8E
:20584000C3016396E2E10C941C35A6E2B2E0EBE2FCE20C940435F82E062F87E593E00E945D
:205860008B354C01E02FF0E0E457FE4F1491EF2DF0E0E157FE4FE4911092AE011092AF0186
:205880001092B0011092B1011092B5011092B4011092B6011092B7011092B8011092B90148
:2058A00080911A01813009F047C18091010118160CF442C118B8E7B90E94FD04006CD02E49
:2058C00000937C000E94FD04C12EE12C00E0212F4FEFBE016F5F7F4F80E191E00E943400A9
:2058E0008F2D806CF82E80937C00212F44E1BE0161507E4F80E191E00E943400DE0111966B
:20590000FE01E150FE4FAE01475D5F4F2D913C911197819191912817390730F0281B390B7C
:2059200011963C932E9303C011961C921E921296A417B50759F7D0927C0060E070E0CE01BC
:20594000019657DE9F5F913150F0903478F490E1692E94E0792E22E0A22EB12C0DC080E14B
:20596000682E77247394A12CB12C06C0B0E16B2E762C04E0A02EB12CA8E0DA2EA895C12E68
:20598000E12C00E0212F4FEFBE016F5F7F4FC3010E943400A114B10471F064EB71E0CE015D
:2059A000019627DE8C01013C8FE3180708F459C000E010E056C093012064DA9411F0390134
:2059C000DDCF2115344010F02EEF37C0F0927C00E89466F8F8E0FF2EC12EE12C00E0212F54
:2059E00044E1BE0161507E4FC3010E943400689466F8FA9489F744E1415030F3842F90E047
:205A0000880F991FE1E0F0E0EC0FFD1FE80FF91F20813181AFEFB1E0AC0FBD1FA80FB91FD8
:205A20008D919C912817390728F0281B390B31832083E2CF11821082DFCF2F3F09F4ADCF3B
:205A4000FE013196E20FF11DE20FF11D8081918173E0969587957A95E1F791838083215066
:205A6000ECCF6801E12CF12C9801D8011FD72FE330E040E050E0DCD6A7EEB1E02CD794018E
:205A80003695279540E050E0D3D6C501880F991F04C0220F331F441F551F8A95D2F72093B8
:205AA000B6013093B7014093B8015093B9018091090190910A01A0910B01B0910C0103971F
:205AC000A105B10540F01092B6011092B7011092B8011092B9010115110569F41092B501EF
:205AE0001092B4011092B6011092B7011092B8011092B90121C027E030E02A193B0960E026
:205B00007DE281E391E004C0660F771F881F991F2A95D2F7A70196018BD62093AE013093D6
:205B2000AF014093B0015093B1018091010187FD03C08FEF80930101CA5DDD4FEEE080C747
:205B4000CF93DF93D82F0E94020284E190E00E9450020E94AD02C0E01092B3011092B2015F
:205B600084E10E940B0562E080E00E9452150E94090224E046E464EF8091B2019091B3019C
:205B80000E94C4046091B2017091B3019B012C533F402539354780F4CF5FC53070F087E56B
:205BA00093E0CCD70E94E6018BEA91E00E94500284E60E940B0505C0C0E00E94AD02DF5F5C
:205BC00059F60E940202DF91CF910895A1E0B0E0EBEEFDE215C780E48AB98BB987E8809351
:205BE0007A001092C1000E94E90414B784B7877F84BF88E10FB6F8948093600010926000BB
:205C00000FBE86E88093640088E380937E001092B00087E08093B10078940E94750213FD24
:205C2000B5C580E185BF10E04F9906C082E00E940B051F5F1C33C1F78FE59DE690931301E0
:205C4000809312011F3130F080E69DE6909313018093120110922C010E94A8182FE088E1BF
:205C600090E00FB6F894A895809360000FBE209360001C3320F00E9405268111FCCF2AE040
:205C8000322E30E1632E40E1542E59E5E52E51E0F52E61E2262E72E1472E0E94310217B8B7
:205CA0000E94BB060E94A8180E94020283E091E00E94500280913A01882381F00E9409029C
:205CC00086E591E00E94500263E080912F01909130010E94CF0488EC0E940B054F9915C0C6
:205CE0000E94DA0289E391E00E94500217B883E00E943F0563E09C01329EC001339E900D5E
:205D000011240E94CF048CE3E7CF0E9409020E94891480911A01893041F50E9431028BE568
:205D200091E00E9450020E94090263E080910301909104010E94CF040E94E60163E0809181
:205D40000501909106010E94CF040E94E60163E080910701909108010E94CF048AEC0E9404
:205D60000B0581E10E943D0799C48CE00E94FD0185E493E0C8D6182F82E493E0C4D6181BFB
:205D800010933701112319F08EE00E94FD0180E00E943D070E94DA028DEB92E00E9450023B
:205DA00042E061E080E00E94870B42E060E081E00E94870B41E062E080E00E94870B41E0DD
:205DC00060E082E00E94870B40E062E081E00E94870B40E061E082E00E94870B80911A01D3
:205DE00081110EC00E94891460E082E00E94521561E082E00E94521560E081E00E94521503
:205E000080911A01833059F480911801823039F49091890180918A01981301C08BD90E9494
:205E200031028FE391E090933D0180933C0180911A01863041F484E992E00E94500241E48C
:205E400067E483E417C0873041F48DE992E00E94500242E367E481E30DC08A30E9F480E158
:205E600090E00E945002F0923D01E0923C0143E467E481E40E9421030E9409028FE691E01F
:205E80000E945002E0913C01F0913D0162E0848195810E94CF0402C4823009F03FC08CE0F3
:205EA00090E00E94500242E365E481E30E94210380E00E94B30260914D0180914C01E82F7B
:205EC000F0E0E60FF11DEE5AFE4F10820E946D1280914D01E0914C01F0E0E80FF11DEE0FB8
:205EE000FF1FEE0FFF1FE256FE4F608171818281938102E024EF4FEF0E94D50386E090E077
:205F00000E9450026091490170914A0180E090E003E025E240E00E94D503C0C3883081F402
:205F2000209183018091840190E0820F911D029719F40E94001BC4C380E00E94251AAEC34B
:205F4000833009F0CBC080911801813009F044C080E00E94AD036091890180918F010E94C2
:205F6000190B80E70E94860340E06091890180918F01FCD9609373017093740180937501F2
:205F80009093760180E00E94D3026091730170917401809175019091760102E026E442EF79
:205FA0000E94D5038DE20E94D80141E06091890180918F01DBD9609373017093740180939A
:205FC00075019093760126E442EF0E94D5038BE291E00E945002B3C2823069F582E30E949E
:205FE000D8018BE191E00E9450028091890120918A01821307C080E00E94C70381E00E94F5
:20600000BF030CC030918F0190919001391308C080E00E94B90381E00E94CD0381E0A2CF78
:20602000321304C081E080930D013CC098133DC050920D0137C08330C1F593E390930D013A
:2060400080918F0190918A01891303C021E020930D014091890130919001431302C050922B
:206060000D0120918B01821303C082E080930D0180919101481303C040E240930D013213F1
:2060800002C040920D01981302C020920D0180910D01823250F483E30E94D8018BE191E05C
:2060A0000E9450020E949C034AC283EA92E00E9450028BE892E00E9450020E940902809135
:2060C0001801805D0E94D8018AE20E94D80185E391E00E94500281E792E0DBC2843009F077
:2060E0004AC180916801882309F460C080914E01882309F45BC060914B0180914D010E94F2
:2061000052158090730190907401A0907501B09076011091850160916701809165010E9409
:20612000521580913F0190914001A0914101B09142014091590150915A0160915B01709199
:206140005C01843FE1E09E07A105B10538F4443FF1E05F076105710508F010EF443F514090
:206160006105710540F4843F9140A105B10518F080EF809385018091850118130EC080916E
:20618000730190917401A0917501B091760188169906AA06BB0618F006C0181724F49DE056
:2061A0009093190103C08CE08093190180916801882361F080914E01882341F04F9906C0E6
:2061C0008091190191E0892780931901809119018C3051F482E891E00E94500280916801D1
:2061E000882389F080E70DC0F0923D01E0923C018EE791E00E94500280914E01882319F0EA
:206200008EE60E94D8010E94E6010E949106182F8530C0F4809119018C3039F490914C019B
:2062200080914D01891738F009C09091660180916701981718F485E391E002C081E391E042
:206240000E94500243E462E485E40E9421030E9409028CE891E00E945002E0913C01F091F9
:206260003D01608171818281938103E020E04EEF0E94D5030E94E60189E40E94D801E0917A
:206280003C01F0913D01868197818031974270F085E60E94D801E0913C01F0913D0186819F
:2062A0009781805197429783868303C083E60E94D8010E94FA01E0913C01F0913D0122E046
:2062C00041E46AEF868197810E94C40480E00E94D30283E791E00E945002E0913C01F091E2
:2062E0003D0163E0848195810E94CF04E0913C01F0913D0180859185892B91F080E00E94CE
:20630000D3028DEF90E00E945002E0913C01F0913D0123E041E46AEF808591850E94C40455
:20632000E0913C01F0913D0182859385892B91F080E00E94D30287EF90E00E945002E0917A
:206340003C01F0913D0123E041E46AEF828593850E94C404153008F0A1C180E00E94D302C1
:20636000812F0E94AD038FE691E00E945002812F0E94780393C1853009F0F9C0809119018E
:2063800084FF08C080E50E94D801F0923D01E0923C0103C08EE40E94D8018DE20E94D801C9
:2063A00080911901182F1F70143041F485E991E00E9450024FE367E48FE318C085FF02C083
:2063C00084E401C085E40E94D801133041F48FE891E00E94500243E467E485E407C08AE947
:2063E00091E00E94500244E467E483E50E9421038091190185FD18C00E940902E0913C01B7
:20640000F0913D01668584850E9452150E94DF028AE691E00E945002E0913C01F0913D01FB
:2064200062E0828593856EC08F70843071F080E00E94B302E0913C01F0913D0166858485A1
:206440000E9452150E94DF021AC0E0913C01F0913D0184819581892B91F080E00E94B30262
:2064600080E090E00E945002E0913C01F0913D0122E041E46AEF848195810E94C40480E086
:206480000E94D30289E40E94D8010E94FA01E0913C01F0913D0122E041E46AEF86819781F4
:2064A0000E94C40485E691E00E945002E0913C01F0913D0162E0828593850E94CF04E091EE
:2064C0003C01F0913D0180859185803C9241E0F480E00E94D30289E40E94D8010E94FA01E6
:2064E00022E041E46BEF80E090E00E94C40485E691E00E945002E0913C01F0913D0162E062
:20650000808591850E94CF0480E00E94F702143009F4C4C010E080911801181708F0BEC06C
:2065200080E00E94D302812F0E94AD038FE691E00E945002812F0E9478031F5FECCF809191
:206540006F01882309F4AAC067B880911201909113010E94B50517B80E9431028091180117
:20656000805D0E94D8018BE191E00E94500200916F01002309F481C00130A1F48091560162
:206580000E94480320915601213039F420911801211103C00E94C71A93C040E0692F0E9499
:2065A00071197CC0309156011091570124E0129FD0011124AE55BE4F84E0389FF0011124D8
:2065C000EE55FE4F4D915D916D917C9180819181A281B38184179507A607B70710F0232FF6
:2065E00001C0212F023029F4310F83E0D82ED31A1CC0D090580194E0D99ED0011124AE551C
:20660000BE4F34E0239FF0011124EE55FE4F4D915D916D917C9180819181A281B381841705
:206620009507A607B70708F0D22E1D2D169502E0C02ECD18DD2011F002E001C001E0812F7F
:206640000E94E30186E191E00E9450028C2D0E94E30186E191E00E945002802F0E94E301A8
:2066600080E00E94B30281E0D11080E00E94520382E0811B0E94520311C08BE792E00E947E
:2066800050020E94090288EA92E00E94500283EA92E00E94500280E49FE104C08091120184
:2066A0009091130167B84F9BFECF0E94B505823328F00E9405268111FCCFEBCA8111E9CA82
:2066C0008CE00E94FD0180913701882309F45BC0B2E09B2EA12CB12C80E090E0A0E17A2EA4
:2066E000F501EE56FE4F6F01F601E80FF91F8490E0E28E1201C0782E019681319105A1F749
:20670000992049F0892D817090FC0CC089830E943102898107C080E197E20E94B5058823F5
:2067200089F32DC060E00E942102A8959394F92DF1709F2E00E010E0071590F4F601E00FDD
:20674000F11F84908820D9F02FEF821203C00E94E60103C0882D0E94D8010F5F1F4FECCF1C
:20676000882069F0A70CB11CF501EE56FE4FE491E03209F0B1CF3FEFA31AB30AADCF80E18C
:2067800097E20E94B5050E94E60687CA0E94020288E692E00E9450028BEC0E940B050E9400
:2067A000E60680E090E02196E2E146C1DB018F939F9391D0BF91AF91A29F800D911DA39FBD
:2067C000900DB29F900D11240895991B79E004C0991F961708F0961B881F7A95C9F78095F2
:2067E0000895AA1BBB1B51E107C0AA1FBB1FA617B70710F0A61BB70B881F991F5A95A9F7D9
:2068000080959095BC01CD01089597FB072E16F4009406D077FD08D0E4DF07FC05D03EF4C2
:20682000909581959F4F0895709561957F4F0895A1E21A2EAA1BBB1BFD010DC0AA1FBB1F58
:20684000EE1FFF1FA217B307E407F50720F0A21BB30BE40BF50B661F771F881F991F1A9411
:2068600069F760957095809590959B01AC01BD01CF010895052E97FB16F400940FD057FD7A
:2068800005D0D6DF07FC02D046F408C050954095309521953F4F4F4F5F4F089590958095B1
:2068A000709561957F4F8F4F9F4F0895A29FB001B39FC001A39F700D811D1124911DB29F10
:2068C000700D811D1124911D0895F0DFB7FF0895821B930B0895EADFA59F900DB49F900D89
:2068E000A49F800D911D11240895B7FFF4CFF3DF821B930B0895E894DF93CF93FC01DB01FC
:20690000D5DF7F936F93E9019A01AC01BF93AF933F932F93DF01CADF26F46C1B7D0B820B16
:20692000930B9E01EB01FC01A2D0AF91BF912F913F919DD0BE01CF01F9012F913F91CF91B9
