:200000000C94E2000C94F4000C94F4000C94F4000C94F4000C94F4000C94F4000C946E09CF
:200020000C94F4000C94F4000C94F4000C94F4000C94F4000C94F4000C94F4000C94F40020
:200040000C94F4000C94F4000C94F4000C94F4000C94F4000C94F4000C94F4000C94F40000
:200060000C94F4000C94F400C908CC08CF08D108D508D808F808F808F008F808F808F8084E
:20008000F308F608FF01020304050607FFFFFFFFFFFFFFFFFFFFFFFFFFFFFFFFFFFFFFFF60
:2000A000FFFFFFFF202122232425262728292A2B2C2D2E2F303132333435363738393A3B4A
:2000C0003C3D3E3F404142434445464748494A4B4C4D4E4F505152535455565758595A5BB0
:2000E0005C5D5E5F606162636465666768696A6B6C6D6E6F707172737475767778797A7B90
:200100007C7D7EFFFFFFFFFFFFFFFFFFFFFFFFFFFFFFFFFFFFFFFFFFFFFFFFFFFFFFFFFF85
:20012000FFFFFFFFFFFFFFFFFFFFFFFFFFFFFFFFFFFFFFFFDFFFFFFFFF05FFFFFFFFFFFFF9
:20014000FFFFFFFFFFFFFFFFFFFFFFFFFFFFFFFFFFFFFFFFFFFFFFFFFFFFFFFFFFFFFFFFBF
:20016000FFFFFFE2FFFFFFFFE1FFFFFFFFFFFFFFFFFFFFFFFFFFFFFFFFFFEFFFFFFFFFFFEA
:20018000F5FFFFFF000000000000000011191D1F1D1911001113171F171311001B1B1B1BBF
:2001A0001B1B1B0000000E11110A1B0000111111131D1010000F0818080F0000001E0203AD
:2001C000021E000011241FBECFEFD8E0DEBFCDBF21E0A0E0B1E001C01D92A23DB207E1F75C
:2001E0000E941D2B0C94032E0C9400000F931F93CF93DF93D82F162F042F80E00E94FD28D6
:2002000081E00E94FD2882E00E94FD288DE30E94302AC0E080919401C81731F08091950134
:20022000C81304C0812F03C08D2F01C0802F0E94302ACF5FC33071F7DF91CF911F910F91DB
:200240000895A3E0B0E0E7E2F1E00C94762D89836A834B838E010F5F1F4FF12CF801E19058
:200260008F01EE2059F08F2D0E94FD288AE30E94302A8E2D0E94302A0E940129F394F3E0CE
:20028000FF12ECCF2396E6E00C94922D8EE892E00E94EE2887E892E00E940A2980919301B9
:2002A0008F5F809393010895809102018130C9F48EE292E00E94EE280E94CC288091070141
:2002C0000E94FD288AE30E94302A0E940129609108017091090180E090E026E54DEF0E9464
:2002E0004C290895A1E0B0E0E8E7F1E00C947A2D69830E94302A81ED90E00E94EE2869818C
:20030000862F0E94302A0E94012960910D0170910E0180910F019091100124E040910C011C
:200320000E944C292196E2E00C94962DCF92DF92EF920F931F93CF93DF9380910501813087
:2003400039F4D0900A01C0E0D0E00AE011E05AC0833009F04BC000910D0110910E01209109
:200360000F013091100160911401709115018091160190911701E0900C01409113010E9419
:200380002806813029F02AE0C22E21E0D22E04C091E1C92E91E0D92EF6010381148125810F
:2003A000368160911B0170911C0180911D0190911E01E28040911A010E942806813031F0FC
:2003C000FAE0CF16F1E0DF0629F407C088E1C82E81E0D82E0AE011E002C001E111E0E801A5
:2003E0002796CC15DD0531F4279604C0C1E1D1E00AE011E0F801D0808881D81619F0898156
:20040000D812D180F80180818D1102C0F80181810E94FD2881ED90E00E94EE288D2D0E9493
:20042000FD28209751F081ED90E00E94EE2888818D1101C089810E94FD280E94CC28F80141
:20044000638174818581968124E042810E944C29209749F00E9401296B817C818D819E81F6
:2004600024E04A8112C0C8010E94CA1F813079F40E9401296091C7017091C8018091C9013F
:200480009091CA0128E44091C6010E944C29DF91CF911F910F91EF90DF90CF900895EF922A
:2004A0000F931F93CF93DF9300913B0110913C0120913D0130913E0160914A0170914B01F1
:2004C00080914C0190914D01E0903A01409149010E942806813019F0C8E3D1E002C0C7E436
:2004E000D1E00B811C812D813E816091590170915A0180915B0190915C01EA80409158018F
:200500000E942806813011F4C6E5D1E088810E94FD288EED90E00E94EE2889810E94FD28B5
:200520000E94CC286B817C818D819E8126E44A810E944C29CE010E94F3138C010F3F8FEF53
:20054000180749F00E940129B80180E090E024E04EEF0E944C298B859C85AD85BE85892B3C
:200560008A2B8B2B61F086E391E00E941C296B857C858D859E8521E448EF0E944C29DF9115
:20058000CF911F910F91EF900895EF920F931F93CF93DF93EC0160919F017091A0018091B5
:2005A000A1019091A20137EFE32E02E310E020E030E04091A3010E94280687FD10C0CE0151
:2005C0000E941C2960919F017091A0018091A1019091A20121E44091A3010E944C29DF9189
:2005E000CF911F910F91EF90089540E0FC01608181810E949F1760913B0170913C0180915B
:200600003D0190913E0126E440913A010E944C290895A0E0B0E0EFE0F3E00C94732D80916F
:200620000601813051F4D0906601C5E0CC2ED5E0ED2E85E0C0E0D0E006C18230F9F4E090FC
:200640006501C0906B01D090660180916C01EC1007C0BD2CC82EB5E0DB2EFF24F39444C045
:20066000D81609F4EDC0E812E5C0DC10E3C0DE2C75E0C72EE5E0BE2EF12C36C0833041F5B3
:2006800080E026E0289F800111240B591E4F90E0299FE0011124CB59DE4F891739F0F80145
:2006A00041813881431302C095E085E09F5F933078F38F5F833030F3853010F4C0E0D0E0D4
:2006C000F801D180F5E0CF2EA5E0EA2E83E0BDC08AED90E00E94EE280E94012980910601FE
:2006E000805D0E94302AB6C0F2E0FE1580F0809166010E94FD2886ED90E00E94EE288E2DC1
:200700000E94FD28CBE6D1E005E611E00FC0CBE6D1E005E611E0F80180810E94FD288AED8F
:2007200090E00E94EE288D2D0E94FD28209791F0F3E0FE1540F08AED90E00E94EE28ED1422
:2007400031F0898105C086ED90E00E94EE2888810E94FD2884E08B15F8F049E16C2D8B2DD7
:200760000E94B0138130C1F40E940129E2E0EE1518F08FE991E002C083EA91E00E94EE28D4
:200780008FE30E94302A0E94CC2861E36C0D81E38B0D0E947201F12C8AE891E00E941C29A0
:2007A000F8016281738180E090E026E54DEF0E944C290E940129209719F5F8018481958196
:2007C0008A3F910578F488E20E94302AF8016481758180E090E020E040E00E944C2989E2A2
:2007E0000E94302A40E0F801608181810E94390E81E00E94521880E891E00E94C50208C0A1
:200800006A817B8180E090E026E54DEF0E944C29F1E0FF121FC088E891E00E941C29C80171
:200820000E94F5022097B1F00E940129CE010E94F50210C045E0C42E55E0E52E65E0D62E1B
:2008400085E0CBE6D1E005E611E0BE2CE82EFF24F39461CFCDB7DEB7E9E00C948F2DA0E05D
:20086000B0E0E5E3F4E00C94752D909102018091940100919601E090950190FF08C0182F74
:20088000DE2CE02E82E0F82EC3EAD1E007C0102F082FD12EFF24F394CFE9D1E085E192E033
:2008A0000E940529CE010E94EE288091020182FF03C08BE20E94302A0E94CC2845E463E41A
:2008C00082E40E94F6006D2D8E2D0E94B518892B59F00E94012983E40E94302A8F2D0E94CC
:2008E000302A85E40E94302A49E1612F802F0E94B013813039F40E94CC2865E482E40E94A6
:20090000720146C08BE991E00E941C2960919B0170919C0180919D0190919E0120E040E0D8
:200920000E944C29602F812F0E94B518EC01009779F187E991E00E941C29EA81FB810C80C9
:20094000DD81C02D00919B0110919C0120919D0130919E01043611052105310590F0CF0136
:200960008C1B9D0B63E070E00E94EE2C0A3F11052105310518F4E61BF70B03C0FB01EC0F55
:20098000FD1FBF0180E090E026E54DEF0E944C298DE891E00E94C502CDB7DEB7E7E00C947E
:2009A000912DFF920F931F93CF93DF9380910201909196016091950180FF03C0892F02E091
:2009C00003C0862F692F01E0909101019F3121F413E524E4F22E03C015E493E4F92E0E9402
:2009E000B518EC01009759F00E9401298F2D0E94302A802F0E94302A812F0E94302A809171
:200A0000020183FD49C08091990190919A01892B81F084E891E00E941C296091990170916E
:200A20009A01882777FD8095982F26E54DEF0E94E02987EA91E00E941C296091A4017091CA
:200A4000A5018091A6019091A70126E44091A8010E944C298091970190919801892B71F05C
:200A600082E391E00E941C29609197017091980180E090E024E04EEF0E944C29209761F066
:200A80008AE891E00E941C296A817B8180E090E026E54DEF0E944C29CDB7DEB7E5E00C94F9
:200AA000932D0E9401298091020180FF02C08EE401C080E50E94302A8AEB91E00E94EE2823
:200AC00008950E9401298091020182FF03C085EB91E002C080EB91E00E94EE280895809170
:200AE000020184FF05C082EC91E00E94EE2803C08AE40E94302A8EEB91E00E94EE280E94A3
:200B000051058091020184FD0E9461050E94CC288091020186FF03C048E768E702C043E588
:200B200064E487E40E94F6008091020184FD0E94D1048091020183FF04C08AE391E00E9484
:200B4000C50208958BEA91E00E94EE280E9451050E9461050E94CC2845E463E487E40E9480
:200B6000F6000E94D104089580910101823249F481E192E00E94EE280E94CC2843E461E4D9
:200B800008C08BE092E00E94EE280E94CC2841E362E387E40E94F600809197019091980193
:200BA000892B71F082E991E00E941C29609197017091980180E090E026E54DEF0E944C290C
:200BC000089587E092E00E94EE280E94CC2843E461E487E40E94F6008DE791E00E941C2916
:200BE00060912A0170912B0180E090E026E54DEF0E944C298AE891E00E941C29609128019A
:200C00007091290180E090E026E54DEF0E944C290895CF92DF92EF92FF92CF93C1E02AE0ED
:200C2000C22ED12CE12CF12C6A3071058105910540F0A70196010E94022DCA01B901CF5F7E
:200C4000F3CF8C2FCF91FF90EF90DF90CF9008954F925F926F927F928F929F92AF92BF9276
:200C6000EF920F931F93CF93DF931F92CDB7DEB74B015C012801390149830E940906182F31
:200C8000C301B2010E940906498181149104A104B10451F1411451046104710401F1410FD6
:200CA000E80EE41654F14E112AC0F12FE82FE11754F4AAE0B0E0A30192010E945F2D2B0194
:200CC0003C01EF5FF4CFFE1754F4AAE0B0E0A50194010E945F2D4B015C01FF5FF4CF4814C0
:200CE00059046A047B0448F081E084149504A604B70408F080E0819503C081E001C08FEFAA
:200D00000F90DF91CF911F910F91EF90BF90AF909F908F907F906F905F904F900895CF92DF
:200D2000DF92EF92FF92CF93DF93C42FD22F3AE0C32ED12CE12CF12CCD1791F0CD1744F4B5
:200D4000A70196010E94022DCA01B901CF5FF4CFAAE0B0E09B01AC010E945F2DC150ECCFB0
:200D6000DF91CF91FF90EF90DF90CF900895AF92BF92DF92EF92FF920F931F93CF93DF93ED
:200D80001F92CDB7DEB75C0162FF08C08091890180FF03C0A12CB12C01C060E0862F8370D3
:200DA000E82E29F081E069830E94E62A698110E001E0F12C6270D62EA114B10449F0E6E0EE
:200DC000AE16B10420F0F5E0AF1AB10801C000E04F9917C08EE190E00E940A0910E000232C
:200DE00011F04F9B06C000E01B3110F142E0F42E21C01F5F1B31B8F78AE090E00E940A09E8
:200E0000EECF85E090E00E940A09DD2099F01F5F143681F4013031F480E00E94E62A10E070
:200E200002E008C081E00E94E62A10E001E002C0FF24F39480918A0180FF06C080918A013B
:200E40008E7F80938A0102C00111B6CFEE2019F080E00E94E62A8F2D0F90DF91CF911F918A
:200E60000F91FF90EF90DF90BF90AF90089565E088EB9BE00E94B70608950F931F93CF9345
:200E8000DF93082F811104C0CDE4D2E010E003C0C6E4D2E013E00E94F50E811769F00E94B6
:200EA000892ACE010E94EE280E94CC2887E392E00E94EE2882E001C081E08230A1F40E9461
:200EC000F50E811306C088EC90E00E940A0981E00AC060E084E690E00E94B706013079F7D7
:200EE000882369F380E0DF91CF911F910F910895681304C08AE20E94302A08950E940129BE
:200F000008954F925F926F927F928F929F92AF92CF92DF92FF920F931F93CF93DF93962E6E
:200F2000742E652E2901AA24AA94A80E809023010FEF080D8AE30E94302A12E0D12CF12CD4
:200F40008A948A94013011F41F5FDF2CC72DD62DCD0DD11DCD0DD11DC12CC01678F562E09D
:200F60006C0D81E00E94BF2A013029F06F2D8C2D8D0D0E9478071230D8F081E0981205C0D8
:200F8000888199810E94EE280AC0CE010E94CF2DBC0180E090E020E040E00E944C29411426
:200FA000510419F0C2010E94EE2880E00E94D12A2296C394AC1488F6C02ECFCF013069F4F4
:200FC00060912301809122010E94BF2AFA1410F48EE301C08CE30E94302A84E690E00E9412
:200FE0000A0960E080E090E00E94B706813091F4FA1004C0F01630F511E025C0F394882D2E
:201000008D0DF81611F011E09DCFFA14E0F7D39412E098CF8230B9F70E94892A84EF91E08A
:201020000E940A098F2DDF91CF911F910F91FF90DF90CF90AF909F908F907F906F905F9038
:201040004F90089512E0D12CF12C7CCFA9E0B0E0ECE2F8E00C94792D182F22E431E03A839D
:20106000298381E08F832FE331E03C832B8382E0888722E232E03E832D8319860E94892AD5
:20108000123019F485E692E002C080E692E00E94EE2820E030E0AE014F5F5F4F61E083E013
:2010A0000E948107FE01E80FF11D6781662319F0812F0E94A3092996E3E00C94952DAEE117
:2010C000B0E0E5E6F8E00C947A2D8AE291E09A83898386E08D8B8EE291E09C838B8389E09B
:2010E0008E8B86EF91E09E838D838DE08F8B89EE91E098878F838EE0888F85E792E09A879C
:20110000898781E0898F8AE692E09C878B8782E08A8F85E692E09E878D8783E08B8F80E6BB
:2011200092E0988B8F8784E08C8F84E592E09A8B898B85E08D8F82E292E09C8B8B8B1E8E31
:201140000E94892A8AE792E00E94EE2820E030E0AE014F5F5F4F61E08AE00E948107FE01B0
:20116000E80FF11D85896E96E2E00C94962DA1E0B0E0EDEBF8E00C947A2D0E945F0890E0B2
:20118000FC013197EE30F10598F5EC5CFF4F0C94432D0E94730C2DC00E945E0A2AC082E0DF
:2011A00001C081E00E94260823C00E94EB0920C00E94892A8AE291E00E94EE2827E231E0E0
:2011C0004CE450E062E088E00E94810790E0880F991F845B9F4F0E94CF2D0E94362108C0F0
:2011E0000E94F12105C00E94402802C00E94612281E089830E94892A8981811103C087E2FB
:2012000092E002C081E892E00E94EE282196E2E00C94962D0F931F9340918B019C01A4E158
:20122000B0E00E94492D4630D1F4072F182F292F33270F5F1F4F2F4F3F4F54E0000F111F41
:20124000221F331F5A95D1F7061717072807390728F4601B710B820B930B01C040E01092D9
:20126000B1001092B20022E02093B0002093700023B7217F242B23BF0FB607FC03C078949F
:2012800030E001C031E047E06115710581059105F9F0A8956F3F71058105910509F010F4DA
:2012A000262F01C02FEF621B71098109910921502093B3004093B1002091B100222321F3C9
:2012C00023B7216023BF889523B72E7F23BFF4CF311101C0F8941F910F9108951F920F92BA
:2012E0000FB60F9211241092B1000F900FBE0F901F90189588EC90E09093BC018093BB0106
:201300008CED90E09093BE018093BD0184E190E09093C0018093BF018BE28093C1011092C1
:20132000C2011092C3011092C4010895EBEBF1E080E09191890F91E0E53CF907D1F78111D3
:2013400001C081E00895FF920F931F93CF93DF93F82E623019F4CEEAD2E002C0C9EBD2E0BE
:201360000E9496098093C5010BEB11E082E0F81206C0F8016081CE010E94D52D05C0CE0159
:201380000E94C72DF80180830F5F1F4F2196F1E0063C1F0759F782E0F816C1F00E9496093D
:2013A0009091C501992391F0981781F00E94892A89E192E00E94EE2887E292E00E940A2950
:2013C00080ED97E00E940A090E947A09CDB7DEB7E5E00C94932D81E080931F010E94892A28
:2013E0008CE691E00E9405296091BB017091BC0180E090E024E04FEF0E944C2988E691E0C7
:201400000E941C296091BD017091BE0180E090E024E04FEF0E944C2982E591E00E941C298E
:201420006091C10170E080E090E026E444EF0E944C298FE491E00E941C296091BF01709108
:20144000C00180E090E024E04EEF0E944C2988E791E00E941C2960918F017091900180E069
:2014600090E026E54DEF0E944C298BE491E00E941C29609191017091920180E090E026E5E5
:201480004DEF0E944C298091890182FF05C00E9401298AE20E94302A85E491E00E941C2923
:2014A0006091C301772767FD7095872F972F26E54DEF0E94E0290E9437070895A5E0B0E070
:2014C000E4E6FAE00C946A2D81E00E943D07882319F072E0572E02C06AE0562E612C712CA5
:2014E0001B82812C912C1A82C12CD12C412CA12CB12C312CE12CF12C00E010E01D821C82B4
:201500002224239486E0851508F462C131E039830E94892A81E40E94302A80E3850D0E9495
:20152000302A0E94012924E0521609F450C0251568F032E0531699F083E0581207C180E081
:201540000E943D0780E034E6398301C195E0591609F466C0E6E05E1609F4A1C0F7C08FE4E4
:2015600091E00E94052985E591E00E94EE2840E060E081E00E94390E80E00E94D7109D83E4
:201580008C838639910518F4C80ED91E439440E060E082E00E94390E80E00E94D7108C0116
:2015A0008639910518F4C80ED91E439440E061E082E00E94390E80E00E94D7107C01863955
:2015C000910508F0C3C0C80ED91E4394BFC08CE691E00E94EE2818B827B825B824B880E074
:2015E0000E94190E9D838C8382E087B955B854B881E00E94190E8C018C819D81800F911F17
:20160000880E991E57B890E195B994B982E00E94190E7C01880E991E3A813D5F3A8396C003
:2016200088E691E00E94EE2815B828B827B824B880919101909192019D838C8380E00E9423
:20164000190EEC81FD81E81BF90BFD83EC83F2E0F8B9F7B924E024B9009191011091920117
:2016600081E00E94190E081B190B8C819D81800F911F680E791E34E038B937B980E184B9EF
:20168000E0909101F090920182E00E94190EE81AF90A6E0C7F1C3B813D5F3B8357C082E55C
:2016A00091E00E94052985E591E00E94EE2840E060E081E00E949F1780913F01909140018A
:2016C000A0914101B09142019D838C8320913A01243F41F485369105A105B10518F4A80EF1
:2016E000B91E339441E060E082E00E949F1780914E0190914F01A0915001B09151018C01BE
:2017000020914901243F41F485369105A105B10518F4A80EB91E339442E061E082E00E94C2
:201720009F1780915D0190915E01A0915F01B09160017C0120915801243F41F48536910561
:20174000A105B10518F4A80EB91E339481E017B818B814B815B8882319F10E94CC28EC817C
:20176000FD81CF01A0E0B0E020E040E0BC01CD010E944C290E940129C801A0E0B0E020E0A4
:2017800040E0BC01CD010E944C290E940129C701A0E0B0E020E040E0BC01CD010E944C2921
:2017A0003981343669F060E088EE93E00E94B706882331F0823011F454E6552E34E639830E
:2017C00039813F5F3983363008F4A2CE53949ACE8FE038120AC0C5016FE070E00E94DA2C44
:2017E0006093C101BB24B39401C0B12C9FE049120AC0C6016FE070E00E94DA2C7093C001FA
:201800006093BF01B3943A813F3009F062C03B813F3009F05EC0E5E0F0E0C401BF010E948B
:20182000DA2C9B01C301BF010E94DA2C8B0180919101909192016C01CC0CDD1CC80ED91EEC
:20184000C21AD30AC61AD70AE12CF12CD90120EA39E041E050E00E945F2DA70196010E9487
:20186000022DCA01B9016B5F7F4F8F4F9F4F2AE030E040E050E00E94022D2A3F3105410530
:20188000510528F43093BC012093BB01B394D80120EA39E041E050E00E945F2DA7019601E6
:2018A0000E94022D2B5F3F4F4F4F5F4FCA01B9012AE030E040E050E00E94022D283181E079
:2018C00038074105510528F43093BE012093BD01B3940E94EB0981E094E0B91280E0259686
:2018E000E2E10C94862DA6E0B0E0E9E7FCE00C946A2D81E00E943D07882319F0772473943C
:2019000002C04AE0742EA12CB12C00E010E01E821D8282E0482E98E0592E28E2222E34EF2C
:20192000C32E36E0D32EE12CF12C96E0971508F41BC166246394E0E23E2E0E94892A84E50E
:201940000E94302A80E3870D0E94302A0E94012983E0781609F484C0871508F44DC091E084
:20196000791609F467C0E2E07E12BFC083E691E00E94052985E591E00E94EE282091910163
:2019800030919201A0E7B3E00E94492DA70196010E94242D91E095B9E5E0E4B982E0298360
:2019A0003A834B835C830E94290E5C0129813A814B815C81A21AB30AF1E1F4B981E0298374
:2019C0003A834B835C830E94290E8C0129813A814B815C81021B130B84E085B994E194B98A
:2019E00080E029833A834B835C830E94290E29813A81821B930B5AC0F5E07F1609F460C057
:201A00007F1608F456C086E078126FC080E791E00E94EE2844B845B880E00E94290E9E831D
:201A20008D8354B855B881E00E94290E8C0134B835B857C08EE00E94B90D8EE00E94B90D1A
:201A40004C0188E791E00E94EE280E94CC28B40180E090E026E54DEF0E944C2980E046C0C2
:201A60008EE591E00E94052985E591E00E94EE2880909101909092019694879445B8EAE0BE
:201A8000E4B982E00E94290E5C01A818B908F2E2F4B981E00E94290E8C010819190955B8F8
:201AA00024B880E00E94290E881999099E838D831CC080E00E943D0780E0B4E66B2E16C012
:201AC00084E791E00E94EE2815B844B880E00E94290E9E838D8354B881E00E94290E8C016C
:201AE00034B882E00E94290E5C0181E014B815B8882319F10E94CC2820E040E0ED81FE8110
:201B0000BF01882777FD8095982F0E94E0290E94012920E040E0B801882777FD8095982FB7
:201B20000E94E0290E94012920E040E0B501882777FD8095982F0E94E029F4E66F1669F0F6
:201B400060E088EE93E00E94B706882331F0823011F4A4E67A2EF4E66F2E639485E08615DA
:201B600008F0EBCE7394E1CE81E02696E2E10C94862DCF93DF93D82FD064D0937C00CD2FE1
:201B8000C07C80918E01C81769F00E940E2B80917A00806480937A0080917A0086FDFCCF81
:201BA000C0938E0120E030E0A90180E0E0918C018E1708F590917A00906490937A0090913C
:201BC0007A0096FDFCCF6091780070917900260F371F411D511D843061F4211594E0390700
:201BE00040F4C03C31F090918D01913011F4D06CC4CF8F5FDBCFC03C29F4A0918F01B0919D
:201C0000900104C0A0919101B09192010E945F2D2AE096958795779567952A95D1F72E2F6D
:201C200030E040E050E00E94022DC901DF91CF910895A1E0B0E0EFE1FEE00C947A2D89832A
:201C40000E94052B89810E94B90D2196E2E00C94962DA1E0B0E0EFE2FEE00C947A2D898351
:201C60000E94032B89810E94B90D2196E2E00C94962DEF92FF920F931F93CF93DF93062FD7
:201C8000C42F8093A9016093AA014093AB01E82EF12CC701875F9F4F0E94C72D8093AF014F
:201CA00010E0C801875F9F4F0E94C72D8093B001D0E0CE01875F9F4F0E94C72D8093B1018F
:201CC000C7018A5F9F4F0E94C72D8093B201C8018A5F9F4F0E94C72D8093B301CE018A5F54
:201CE0009F4F0E94C72D8093B401C7018D5F9F4F0E94C72D8093B501C8018D5F9F4F0E9452
:201D0000C72D8093B601CE018D5F9F4F0E94C72D8093B701C701805090400E94C72D8093EA
:201D2000B801C801805090400E94C72D8093B901CE01805090400E94C72D8093BA01CDB7C7
:201D4000DEB7E6E00C94922D4091AE016091AD018091AC010E94390E08958091A901809398
:201D6000AC018091AA018093AD018091AB018093AE01089523E030E0281B3109822F861B3B
:201D80000895CF93DF9340E00E94390E17B89091AF0195B98091B001892B84B98091B8015E
:201DA0000E94190EEC018091B9010E94B90D209191013091920136952795A9014E51510979
:201DC0004C175D0760F4225E3F4FC217D30738F44817590720F441E08217930708F040E0BC
:201DE00014B8842FDF91CF910895CF9361E080E00E94C10EC82F62E080E00E94C10EC80FA2
:201E000062E081E00E94C10E8C0FCF910895A7E0B0E0EDE0FFE00C94702D17B818B815B8AA
:201E20008FE384B980E00E94B90D9A83898381E00E94B90D9C838B8382E00E94B90D9E8321
:201E40008D83B12C62E0962E48E2AA24A394CC24C394D12C939483E0981201C0912CE92C55
:201E6000F12C2B2D30E0092C02C0359527950A94E2F720FD5DC0892D4F830E94B90D8C0132
:201E8000F701EE0FFF1F81E090E08C0F9D1FE80FF91F208131814F810217130768F41183B2
:201EA0000083242F30E02A1931092431310564F44B3E50F44C5E08C00A30110518F44832C7
:201EC00009F440E5A39402C0AA24A3940330110548F4C60102C0880F991FEA94E2F77C01B1
:201EE000B82A0EC0003293E0190750F487B0C7018D5F9F4F4F830E94C72D882987B94F8127
:201F000087E0B816B9F04A1560F481E0809301018093020190920701109309010093080131
:201F200009C0A89582E390E04F830E940A094F81A11090CF14B817B82796ECE00C948C2DE2
:201F4000CF93C82FC09595B160FF02C0982B01C09C2395B994B1982B94B963FF03C00E94BF
:201F6000092B02C00E94042B84B18C2384B985B18C2385B9CF910895A0E0B0E0E2ECFFE09C
:201F80000C94752D613071F06230A9F0633009F04DC00CE010E02EE130E0C9E1D0E048ECC0
:201FA00050E011C00CE510E027E030E0C2E3D0E048EE53E008C00EE610E02CE230E0C9E1F6
:201FC000D0E04CE251E08417950718F0841B950B02C080E090E0BE010E94DA2CDC2ED81A7F
:201FE000CB0199272817390708F0262F020F111D020F111DC8010E94CF2D7C01C8010296C6
:202000000E94CF2DFC01E81AF90ADE9C9001DF9C300D1124CE0196958795280F391FC901B9
:20202000BE010E94DA2C6E0F7F1F02C060E070E0CB01CDB7DEB7E7E00C94912D0F931F936E
:20204000CF93DF93182F062F80910101813009F48CC0A895812F0E94390E15B88091B001BE
:2020600084B98091B50187B988B960E18091B1010E94A00F8091B9010E94190EEC01813D47
:2020800023E0920750F061E18091B1010E94A00F8091B9010E94190EEC01C031D10528F4AA
:2020A00080910301811127C00CC080910301811103C0CE010E94BA1CC13D83E0D807C8F518
:2020C000EFCF8091B00184B915B88091B50187B988B90E94052B9091B1018091B001982B04
:2020E00094B9802F0E94190E8F359D4020F0BE0182E00E94FE1A80910301811122C08091F5
:20210000B60187B918B89091B1018091AF01982B94B995B9812F0E94190E8034964088F487
:202120000E94061E81110DC0BE0181E00E94FE1A08C080910301811102C00E94A41E0E9469
:20214000CB1880910101882311F08A3019F40E94961107C08F3129F48091020184FD0E94F2
:20216000C61917B818B814B815B8DF91CF911F910F910895809104018823C1F090910301F4
:2021800090FD14C091FD04C0909101019E3170F4809301018091250180939401809126010A
:2021A0008093950180912701809396010895A4E0B0E0EDEDF0E10C946C2D082F0E94070F0F
:2021C00080910101813009F45EC018B88091B60187B98091AF0185B984B90E94042B812C8E
:2021E000912C540181E0982F9170792E80FF03C08091B80102C08091B901A895806C809328
:202200007C000E940E2B80917A00806480937A0080917A0086FDFCCF14E620E030E0A901DE
:2022200080917A00806480937A0080917A0086FDFCCF8091780090917900280F391F411DB9
:20224000511D29833A834B835C830E940B2B115029813A814B815C811111E2CFA0918F011F
:20226000B09190010E945F2D6B017C018AE0F694E794D794C7948A95D1F7772039F082E037
:2022800046015701B0CF80E090E04CC015B88091B5019091B601892B87B9C814D904EA043D
:2022A000FB04D8F52091910130919201A4E6B0E00E94492D9B01AC01281939094A095B0906
:2022C0000E945F2D2B013C01A50194012C193D094E095F09A8EEB3E00E945F2D6B017C01A2
:2022E0002091BD013091BE012057354E40E050E0C301B2010E94022DC701B6010E94022D0D
:20230000C901013061F46091BF017091C0016217730718F4861B970B02C080E090E020EC1A
:2023200020938E012496E0E10C94882DA1E0B0E0ECE9F1E10C946A2DA89518B88091B601C7
:2023400087B98091AF0184B985B98091B9010E94190E8C018091B8010E94B90D7C0115B864
:202360008091B20184B98091B8010E94190E459708F0F2C18091B20185B98091B8010E94D4
:20238000190E4C018091B50187B988B915B88091B00184B98091B8010E94190E5C018091B4
:2023A000B9010E94B90D6C018091B30184B98091B9010E94190E3C0120E3E21621E1F206C6
:2023C00028F432E68316910438F0C6C18CE6881683E1980608F0C0C1E9EACE16D10408F0DD
:2023E00068C0F6E26F16710408F4B6C1D40120EF3BE247E050E00E945F2D00919101109126
:20240000920198012819390940E050E00E94022D69017A01D801A619B70920EF3BE247E05C
:2024200050E00E945F2D830120E030E0A90198010E94022D8EED881683E0980670F4C70150
:20244000B601E2E0660F771F881F991FEA95D1F7620F731F841F951F12C0EEED6E16E3E004
:202460007E06A0F4CA01B901B2E0660F771F881F991FBA95D1F76C0D7D1D8E1D9F1D25E02D
:2024800030E040E050E00E94022D08C02C0D3D1D4E1D5F1D5695479537952795225A3E4F71
:2024A0004F4F5F4FAAE0B0E00E945F2D4B015C0179C0E016F10608F46DC0AC14BD0408F413
:2024C00069C04091910150919201E416F50619F4F1E0EF1AF108A091BD01B091BE01A05741
:2024E000B54E9701201B310B0E94492D9A012E193F0940E050E00E94022D29013A01A091D1
:20250000BB01B091BC01A057B54E95012C193D090E94492D860120E030E0A90198010E9452
:20252000022D8EEDE81683E0F80670F4C301B201F2E0660F771F881F991FFA95D1F7620FB3
:20254000731F841F951F12C0EEEDCE16E3E0DE06B0F4CA01B901E2E0660F771F881F991F05
:20256000EA95D1F7640D751D861D971D25E030E040E050E00E94022D49015A0113C05301B8
:202580004201820E931EA41EB51EB694A7949794879408C0FFE8CF16F2E1DF0608F0D7C07C
:2025A00000E0D6C034E683169104A104B10408F0CBC08401750181E00E94D7104C01A12C81
:2025C000B12CA4E1B0E09801A7010E945F2D611571058105910521F464E670E080E090E013
:2025E00086169706A806B90618F048015701ACC04EEFF42E80E027E0C22E3AE0D32E90912E
:202600000501891708F087C0C89E100111249101265F3E4F1901F90120819091A9012913C9
:2026200076C021819091AA01291371C0E12C02E010E020E030E04F2DC501B4010E942806D3
:202640008F3FB1F5F101638174818581968102E010E020E030E042810E9428068F3F09F5DD
:20266000F10142814F1102C051E001C05FEFF1016381748185819681EF2C95018401598349
:202680000E9428065981F101851306C083809480A580B680F28005C083829482A582B6821D
:2026A000F2822401350176946794579447940AC0C501B40124E130E040E050E00E94022D05
:2026C00029013A01F1016381748185819681EF2C95018401041915092609370942810E9468
:2026E000280687FD16C093018201080D191D2A1D3B1DF101638174818581968142810E9404
:202700002806181634F0D092010184E678CF8F5F76CF88EC74CF8436F9F09330E8F427E0F1
:20272000929FF0011124E65FFE4F8091AA0180838091A901818383829482A582B682F28244
:202740009F5F9093050108C0FF24FA9453CF0AE010E0E12CF12C2FCF2196E2E10C94862DE8
:20276000EF920F931F93CF93C42F1092050140E00E94390E0E949611809105018130B1F4C8
:20278000CC23B1F000910D0110910E0120910F01309110016C2F70E080E090E0E0900C018F
:2027A00043E00E94280691E0813019F090E001C091E0892FCF911F910F91EF900895813123
:2027C00038F0815115BC92E094BD87BD81E0089580E0089516BC81E085BDA99BFECF15BCD5
:2027E00082E085BB0895A4E0B0E0E9EFF3E10C946A2D9C838B83892B19F42FEF3FEF2BC17D
:20280000EB81FC816381748185819681A7EFEA2E0AE010E020E030E042810E94280687FD2A
:20282000ECCF0E94070F80910101813031F340E0EB81FC81618180810E94390E9090B8018F
:202840002091B901892D806C982E206C298315BC82E084BD85E387BD18B890927C000E943D
:20286000042B9FEF9A83C12CD12C7601C394412C512C3201439480E090E002E310E057EDE9
:20288000852EA895C29758F48091B60187B98091AF0185B984B90E94172B14B815B80233AD
:2028A000110558F48091B50187B98091B00185B984B90E94172B14B815B88091B50187B9EE
:2028C0008091AF0185B984B990927C0080927A0080917A0086FDFCCF80927A0080917A00A2
:2028E00086FDFCCFA0907800B0907900298120937C0080927A0080917A0086FDFCCF8092D9
:202900007A000E94132B0E94EA138091B00185B984B90E94172B15B814B880917A0086FDF6
:20292000FCCF00917800109179008091B60187B98091B00185B984B9898180937C008092B9
:202940007A0080917A0086FDFCCF80927A0080917A0086FDFCCF209078003090790090923C
:202960007C0080927A0080917A0086FDFCCF80927A000E94132B0E94EA138091AF0185B96C
:2029800084B90E94172B15B814B880917A0086FDFCCF8091780090917900A50160E070E04B
:2029A000420D531D611D711D440E551E661E771EA80160E070E0480F591F611D711DC40E88
:2029C000D51EE61EF71E2A8121502A83211159CF4C145D046E047F04C8F58091BB01909167
:2029E000BC012AE0289FD001299FB00D1124A701960124193509460957090E945F2DA30183
:202A000092010E94022D8091BF019091C0018217930718F4281B390B1BC0EB81FC81638131
:202A20007481858196812AEFE22E08EE13E020E030E042810E94280621E030E0181614F488
:202A400020E030E031952195310902C02FEF3FEF80EC80938E01C9012496E2E10C94862DFA
:202A6000A0E0B0E0E6E3F5E10C946F2DEC0141E1B42E53E0A52E0E94070F809101018130F8
:202A800009F40EC118B88091B60187B915B814B88091B8010E94B90D8C01C12CD12C8FEFD2
:202AA000C81AD80A6B2D8091AF010E94A00F8091B8010E94B90D0817190760F47C01E01A6C
:202AC000F10A9EE7C916D10459F48BE4E816F10490F00BC0E12CF12C8EE7C816D10459F02D
:202AE00094EFC91691E0D90631F081E09CE2E91691E0F90608F080E0A8958111D0CF8CE281
:202B0000E81681E0F80610F4AA24A39491E0C916D10461F485E1E81685E0F80638F08B2D2E
:202B2000807109F4C1C039E0B32EA5CF7A2C93E0A912BCC0460180E090E08114910459F0DE
:202B400081E0881A91088091B8010E94B90D801B910BA895F2CF8E159F0548F44701881A05
:202B6000990A95E68916910420F0712C02C0812C912C8091B8010E94B90D8C018B2D8071C2
:202B8000A82E19F00E94F92A02C00E94FE2A8091B8010E94B90D8017910718F4081B190B51
:202BA00002C000E010E093E079127CC062E0C4018E0D9F1D0E94BC0F9C01D6010E94492DF2
:202BC0006B017C01AA2041F0AAE0B0E09B01AC010E945F2D6B017C0188E3C81689E8D806FF
:202BE00081E4E806F10468F0C701B60128EE33E040E050E00E94022D69017A012AEF922EAE
:202C000002C097EF992EA8EEB3E0A70196010E945F2DAA2029F022E434E040E050E004C0FE
:202C200020E134E040E050E00E94022D8091AA0188838091A90189839A82CF82D886E98696
:202C4000FA862B833C834D835E838AE0C82ED12CE12CF12C213095E339079CE04907510524
:202C600040F0CA01B901A70196010E94022D9394F1CFD8010E945F2D28EE33E040E050E028
:202C80000E94022DCA01B901B3FC939428EF492D0E948F066B877C878D879E8783E007C0EC
:202CA00080E005C0872D03C0B2E0AB2E8A2DCDB7DEB7EDE00C948B2DA4E0B0E0E2E6F6E165
:202CC0000C94702D4C010E94070F80910101813009F469C015B897E097B918B88091B201A0
:202CE00084B980E480937B0084E480BF8091B801806480937C0090937A000E940D2B1092A8
:202D0000800010928100109285001092840087E286BB8091B20185B9809101018F3129F427
:202D20008091B5018095877002C08091B60191E09093810087B900E010E081E046B345FD75
:202D40000AC040FFFBCF86BBA8950F5F1F4F003A2FE0120799F71092810080E286BBE0901E
:202D60008600F090870014B88091840090918500E816F90630F440FF04C081E086BB0F5F8B
:202D80001F4F87E980937A008091B8010E94B90D5C0115B88091B20184B9003A8FE01807A3
:202DA00020F081E0C8C080E0C6C0C701A0E0B0E0A80160E070E033272227282B392B4A2B54
:202DC0005B2B2330310541055105A8F02250310941095109283399E8390791E44907510529
:202DE00050F0CA01B90128EE33E040E050E00E94022D17EF01C014EF7091C30180918F0194
:202E00009091900161E0870F911D77FD9A9529833A834B835C830E94BC0FDC0129813A8113
:202E20004B815C810E945F2D20ED37E040E050E00E94022D143F89F48091C10190E0A0E0E3
:202E4000B0E0281739074A075B0750F069017A01C81AD90AEA0AFB0A06C069017A0103C05F
:202E6000C12CD12C76018091AA01F40180838091A901818312832783308741875287C382A2
:202E8000D482E582F682143F49F4F0EACF16F6E8DF06F1E0EF06F10460F44CC0173F09F081
:202EA00049C081E2C8168EE4D806E104F10408F041C08091B8010E94B90D853D9340C8F71F
:202EC00014B810928D018091B8010E94B90D8C0181E080938D018091B8010E94B90DAC0156
:202EE0008091B20184B9D801A41BB50B00918F0110919001CD010496099788F098010E946B
:202F0000582D9A0140E050E00E94242D8091C201820F8093C2010C0D111DC7FC1A95F50164
:202F2000E01BF10B8F01CF01C1968336910510F4E093C30183E02496ECE00C948C2D6F9216
:202F40007F929F92AF92BF92CF92DF92EF92FF920F931F93CF93DF931F92CDB7DEB7F82EA1
:202F6000962E8FE0489F30011124F301E85CFE4F3F011082118284EF8283178210861186A9
:202F800012861382148215821682138614861586168680910101813009F475C08A3039F0FC
:202FA000692D8F2D0E94B5180097D9F540C0FBE0CF2EF1E0DF2EACE0AA2EA1E0BA2E50E038
:202FC00080910501581750F5F601319780818F1104C0F6019081991531F0891117C0F601C3
:202FE00080818F1113C0F6016281738184819581E12C0AE010E020E030E0F50140815983EA
:203000000E94280659818F3F09F453E65F5FF7E0CF0ED11C87E0A80EB11CD2CF543699F500
:20302000BFCFFC01228133812C3D354060F140E0692D8F2D0E94390EC3010E9430158230C7
:2030400019F4C3010E945C16909101019431A8F4F30182819A3031F48A3F7CF08BE080936E
:2030600001010BC0853FD4F7F30183819481A581B6810597A105B10588F70E94070F17B88C
:2030800018B814B815B80F90DF91CF911F910F91FF90EF90DF90CF90BF90AF909F907F9060
:2030A0006F900895CF92DF92EF92FF92CF93C82F15B88091B00184B99091B50197B998B9F3
:2030C0008091B9010E94190E8430910500F1C090BB01D090BC01E12CF12C893725E0920770
:2030E00070F0C13061F414B88091B6019091B501892B87B98091B9010E94B90D06C020E9C9
:20310000C20E2AE1D21EE11CF11CC9EF0FC08091B30184B98091B9010E94190E20EFC22EBE
:203120002BE2D22E27E0E22EF12CC8EF17B818B814B815B8DC0120EA36E841E050E00E9467
:203140005F2DA70196010E94022D20939F013093A0014093A1015093A201C093A301CF91CA
:20316000FF90EF90DF90CF90089590910601A6E6B1E0E5E6F1E0992351F02081821303C0FF
:203180002C91621731F0915036961696F4CFE0E0F0E0CF010895A0E0B0E0E1EDF8E10C9468
:2031A000702DA8950E94070F80910101813009F4E8C018B88091B60187B98091B8010E94D0
:2031C000B90D4C018091B20184B985B961E18091B1010E94A00F8091B8010E94190E5C0157
:2031E0008091AF0184B985B961E18091B1010E94A00F8091B8010E94190E6C018091B90172
:203200000E94B90D8C010E94070F80910101813009F4B7C018B88091B60187B98091B80127
:203220000E94B90D7C0117B88091B50188B987B915B88091B30184B960E18091B1010E941D
:20324000A00F8091B8010E94190EEC018091B9010E94B90DC817D90718F0C81BD90B02C0BC
:20326000C0E0D0E0C01AD10A8091B00184B960E18091B1010E94A00F8091B8010E94190E62
:203280008C018091B9010E94B90D081B190B17B80C151D0538F4C601801B910B7401E50190
:2032A000860103C0C8018C199D09893E934008F068C0C630D10508F464C0EC16FD0620F4F1
:2032C000CE018E199F0903C0C7018C1B9D0B23E0E216F10420F08436910508F452C0C8329E
:2032E000D10538F0C801875991098938914158F148C015B88091B00184B98091B50188B9D5
:2033000087B98091B9010E94190E7C018091AF0184B98091B60188B987B98091B8010E94A9
:20332000190E9C01C70164E170E00E94DA2CC701861B970B82179307A8F6E60EF71E2E159C
:203340003F0580F61EC080910101882311F08A3019F484E1809301018091060196E0899F1F
:20336000F0011124EB59FE4F9091A90190839091AA01918313830283D583C4838F5F80931D
:203380000601CDB7DEB7ECE00C948C2D20910201809196019091950120FF03C0682F892FA4
:2033A00001C0692F0E94B518892B49F01092010110920201809103018E7F80930301089539
:2033C000A1E0B0E0E6EEF9E10C94702D482F4170A42E80FF06C00091AF018091B50120E1A9
:2033E00005C00091B0018091B60121E18770B82E8091BA01806480937C001AE0C12CD12CFC
:20340000760188248A9433E0932EA895622F8091B10129830E94A00F8091B401802B84B95B
:203420002981AA2021F086B18B21E9F703C086B18B21E9F304B980917A00806480937A0009
:2034400080917A0086FDFCCF8091780090917900AA2029F0C80ED91EE11CF11C07C0F401FA
:20346000E81BF90BCE1ADF0AE108F108115069F6C701B6012AE030E040E050E00E94242DF6
:20348000A0919101B09192010E945F2D20E034E040E050E00E94242D30939A012093990165
:2034A0002196ECE00C948C2DA0E0B0E0EAE5FAE10C94732DB82E9091B10181E0B8121AC078
:2034C0008091B50187B988B92091B001292B24B995B98091B9010E94190EEC01009191011F
:2034E000109192018091BA010E94B90D9801281B390B18C018B88091B60187B98091AF01D3
:2035000085B9982B94B9C0919101D09192018091B8010E94190EC81BD90B8091BA010E94BE
:20352000B90D9C01CE01821B930BB9010E94DA2C6B01E12CF12C2031310508F058C090916E
:20354000B40181E0B8121AC08091B001892B84B995B98091B9010E94190E8C01C0919101AC
:20356000D09192018091BA010E94B90DFE01E81BF90BC091BB01D091BC0117C08091AF015A
:20358000892B84B900919101109192018091B8010E94190E081B190B8091BA010E94B90DD5
:2035A000FC01C091BD01D091BE01309711F4E1E0F0E0D80120EF3BE247E050E00E945F2DF8
:2035C0009F0140E050E00E94022DAAE0B0E00E945F2D9E012057354E40E050E00E94022D28
:2035E000C216D306E406F50610F469017A01C701B601CDB7DEB7E9E00C948F2D8F929F923D
:20360000AF92BF92EF92FF920F931F93CF93DF9300D000D0CDB7DEB7F82E5B010E94AD0E46
:203620009091B40121E0F21223C08091AF01892B84B985B90E94002B0091910110919201B8
:203640008091B8010E94B90D081B190B80909101909092018091BA010E94B90DF401E81B70
:20366000F90B88E49DE02DEF39E09924939414C08091B001892B84B98091B9010E94190E29
:203680008C018091BA010E94B90DFC0180ED97E021ED33E042E0942E2E173F0708F0D1C06F
:2036A000809101018E3171F480910301816080930301809102019F2D982349F484608093F7
:2036C000020105C08EE180930101F0920201A016B10610F40A191B09D80120EF3BE247E035
:2036E00050E00E945F2D9F0140E050E00E94022DAAE0B0E00E945F2D31E0F31205C02091D7
:20370000BD013091BE0104C02091BB013091BC012057354E40E050E00E94022D8F2D298339
:203720003A834B835C830E94541A4B015C0129813A814B815C81621773078407950710F43A
:2037400049015A0181E040E0F81205C06091AB018091AA0104C06091A9018091AB010E945D
:203760009F170E94A40E8091020182FF28C000913B0110913C0120913D0130913E01609137
:20378000A4017091A5018091A6019091A701E0903A014091A8010E942806813069F01092BB
:2037A0009B0110929C0110929D0110929E018F2D84608093020103C0812C912C54014091A4
:2037C0009B0150919C0160919D0170919E01481559056A057B0508F0BEC080E00E94521814
:2037E00080929B0190929C01A0929D01B0929E0140913B0150913C0160913D0170913E0111
:203800004093A4015093A5016093A6017093A70180913A018093A8018091AB0180939401F5
:203820008091A9019091AA01E1E0FE1205C080939501909396018FC0909395018093960156
:203840008AC0F1E6AF16B10408F085C08017910708F081C08091B8010E94B90D5C01809188
:20386000B9010E94B90D9501281B390BC9012A3F310598F52FE120930101292D24612093C0
:20388000020131E0931205C02091BD013091BE0104C02091BB013091BC012057354E4AE0E8
:2038A000489FD001499FB00D11240E94492D980140E050E00E94022D8091BF019091C001F1
:2038C0008217930718F4281B390B02C020E030E0309398012093970107C080E2809301016B
:2038E000892D846080930201892D0E94E019809103018160809303018091AB018093940155
:203900009091A9012091AA01E1E09E1205C0909395012093960104C0209395019093960180
:2039200040E0609196010E949F1780913B0190913C01A0913D01B0913E018093A401909312
:20394000A501A093A601B093A70180913A018093A8010E94A40E0F900F900F900F90DF91B4
:20396000CF911F910F91FF90EF90BF90AF909F908F900895A0E0B0E0E0ECFCE10C94722D18
:203980008B3E914028F068EEE62EFF24F39403C058E2E52EF12C8091B4019091B001892BE8
:2039A00084B98091B9010E94290E6C018091B40185B98091B9010E94290E8C01C6018E0D22
:2039C0009F1D8017910708F047C08091B10184B985B918B88091B60187B98091BA010E9479
:2039E000290E5C0117B88091B60188B987B98091B4019091AF01892B84B915B88091B801FC
:203A00000E94290EEC018091B40185B98091B8010E94290E8C1B9D0BEC0118B88091B60165
:203A200087B98091B4019091AF01892B84B985B98091BA010E94290E88349F4010F089E1D6
:203A400006C08CEBA81682E0B80630F089E2809302010C191D095DC018B88091B60187B96A
:203A60008091B4019091AF01892B84B985B98091B8010E94290EEC018091AF0185B98091E0
:203A8000B8010E94290E8E01081B190BE80EF91EEC16FD0608F0B5C08091B10184B915B872
:203AA0008091B60187B988B98091BA010E94290E7C0118B88091B50187B98091B4019091DD
:203AC000B001892B84B985B98091B9010E94290EEC018091B00185B98091B9010E94290ED1
:203AE000C81BD90B15B88091B50188B987B98091BA010E94290E813D934010F48AE107C07E
:203B00003DECE31630E1F30608F07BC08AE2809302018FE180930101809103018160809336
:203B200003014091AB01409394018091A9019091AA01C017D10728F48093950190939601E7
:203B400004C09093950180939601C80162E370E00E94DA2CC801861B970BC817D90750F02D
:203B6000060F171F0C171D0728F08091020180648093020160919601809195010E94390E75
:203B80008091B7019091B601892B87B99091AF0194B92091020120FF13C018B895B9C0915D
:203BA0009101D09192018091B8010E94290E9E01281B390BC9014091BD015091BE010AC0F3
:203BC00088B915B88091B8010E94290E4091BB015091BC014057554E9C01A0E1B7E20E9476
:203BE000492D9A0140E050E00E94022D20939F013093A0014093A1015093A2018AEF809355
:203C0000A301CDB7DEB7EAE00C948E2DEF92FF920F931F93CF93DF938091BA010E94B90D54
:203C20008C018091B9010E94B90DEC0160E18091B1010E94A00F8091B8010E94190E7C0172
:203C400015B80E94052B8091AF0185B98091B8010E94190E20E4E21626E0F20608F05AC027
:203C60008133914108F456C014B815B88091B60188B90E94052B8091AF0184B98091B80170
:203C80000E94190E853F910508F044C060E18091B1010E94A00F8091B8010E94190E7C01A0
:203CA0008DEDE81682E0F80648F482E280930101809103018160809303012EC08091AF01BB
:203CC00085B90E94052B15B88091B8010E94190E853F9105F8F480910101813229F480913A
:203CE000030181608093030181E28093010180919B0190919C018E159F0500F5A70160E0C1
:203D000070E040939B0150939C0160939D0170939E0102C080E013C08091AB0180939401D7
:203D20008091A901809395018091AA01809396010C1B1D0B109398010093970181E0CDB71E
:203D4000DEB7E6E00C94922DEF92FF920F931F93CF93DF938091B8010E94B90DEC0180913F
:203D6000B9010E94B90D7C018091BA010E94B90D8C0117B88091B50188B99091B40195B9E8
:203D80008091B001892B84B982E390E00E940A098091B50187B98091B9010E94B90D0A970B
:203DA000E0F483E2809304018091AB01809325018091A901809326018091AA0180932701D0
:203DC000CE018E199F099093290180932801C01BD10BD0932B01C0932A01CDB7DEB7E6E099
:203DE0000C94922D0F931F93CF93DF93EC01162F009711F480E0C9C00E94070F80910101BA
:203E00008130C1F315B818B89091B501012F017010FF05C08091B00184B997B905C014B874
:203E20008091B601892B87B987E080937A0080E480937B008091B901806C80937C0084E432
:203E400080BF0E94092BA8951092800010928100109285001092840087E286BB9091B501FD
:203E6000E12FE47012FF0BC098B984E100008150E9F78091810081608093810006C08091BD
:203E8000810081608093810098B940E050E081E066B365FD0AC060FFFBCF86BB4F5F5F4F1F
:203EA00040355105A9F710E001C013E01092810080E286BB80918600909187002091AF018D
:203EC0003091B001232B24B917B820918400309185008217930730F460FF04C021E026BB9F
:203EE0004F5F5F4F27E920937A00112309F44CC0A0E0B0E060E070E0BA0155274427482B37
:203F0000592B6A2B7B2BEE2331F0415B5F4F6F4F7F4F93E001C094E0002311F083E001C0EA
:203F200081E0890F90E0A0E0B0E084179507A607B70738F49A01AB01281B390B4A0B5B0BB1
:203F400003C020E030E0A901A4EFB1E00E945F2D6B5F7F4F8F4F9F4F2AE030E040E050E0C4
:203F60000E94022D288339834A835B83002331F0223E34404105510530F006C02536310533
:203F80004105510508F412E0812FDF91CF911F910F9108954F925F926F927F92BF92CF9294
:203FA000DF92EF92FF920F931F93CF93DF9300D000D0CDB7DEB76C011092C6011092C7015D
:203FC0001092C8011092C9011092CA01009709F41BC1FC016381748185819681E12C00ED40
:203FE00017E020E030E042810E94280687FF0CC140E0F601618180810E94390E65E0CE01DD
:2040000001960E94F21E833061F489819A81AB81BC8189389341A105B10528F0A5E0FA2E0B
:2040200025C08111F1C061E0CE0101960E94F21E8230B9F4F6016381748185819681E12CA6
:2040400008E210E020E030E042810E94280687FFDBC062E0CE0101960E94F21EF2E0FF2E69
:2040600002C0FF24F394833009F0CEC0F60163817481858196812FEF42810E948F068B0109
:204080009C018091BF019091C0010596E091BB01F091BC01C090BD01D090BE01CE0EDF1EC4
:2040A0006AE070E00E94DA2CC60ED71EC00ED11EF0FE18C020E7C21A25EED20AE057F54E26
:2040C00089819A81AB81BC81803727E19207A105B105A0F0843D9043A105B10590F42DE28B
:2040E00030E017C089819A818C3D25E0920760F08838934160F42CEE3FEF0BC020E530E0ED
:2041000008C027E330E005C02AE030E002C02AEB3FEF4091C30180918F0190919001840F5E
:20412000911D47FD9A95442737FD4095542F280F391F411D511DE12CF12CC701B6010E94C1
:20414000BC2C9F0140E050E00E94022DCA01B90125E030E040E050E00E94022D63E0C901EE
:204160000E94BC0F8C0129813A814B815C8177EFB72EEAE04E2E512C612C712C213A86E836
:20418000380781E04807510560F0CA01B9016B5F7F4F8F4F9F4FA30192010E94022DB39452
:2041A000EDCFD8010E945F2D9B01AC016AE0462E512C612C712C213AE6E83E07E1E04E070A
:2041C000510560F0CA01B9016B5F7F4F8F4F9F4FA30192010E94022DB394EDCFC701B601C6
:2041E0000E94BC2CB092C60120E137E240E050E00E94022D2093C7013093C8014093C9014D
:204200005093CA0181E001C080E00F900F900F900F90DF91CF911F910F91FF90EF90DF9055
:20422000CF90BF907F906F905F904F900895A1E0B0E0EDE1F1E20C947A2D89830E94302957
:204240008981811103C063E78DE202C060E08BE24DE20E94210160E088E893E10E94B70661
:204260000E9430292196E2E00C94962D8F929F92AF92BF92CF92DF92EF92FF92CF93DF93CB
:204280006C0180E00E943D070E94892A8AE291E00E940529E12CF12C28E440E0C701B60194
:2042A0000E944C298AE70E94302A80E00E94172118B885E087B984E084B915B860E876E9B6
:2042C00088E990E0A70196010E94022D69017A01213884E838078EE14807510530F0C32EDF
:2042E000D42EE52EFF2424E010C021388EE338074105510548F056E0F694E794D794C794D4
:204300005A95D1F723E001C021E01092810083E28093800080E18093810010928500109248
:204320008400D0928900C0928800C6019695879590938B0080938A00206120938100C2E381
:2043400044E6842E912CA12CB12C0E9430298C2F90E0A0E0B0E025E240E0BC01CD010E9490
:204360004C2984EF91E00E940A0960E080E090E00E94B706D82F813079F482E390E00E9424
:204380000A0960E088EC90E00E94B706811108C0C03638F4CB5F05C0C53018F0C55001C049
:2043A000D0E0AC2FB0E0A70196010E945F2DA50194010E94022D30938B0020938A00D111FC
:2043C000C4CF109281001092800014B8DF91CF91FF90EF90DF90CF90BF90AF909F908F90B1
:2043E0000895109206010E94892A8EE291E00E94EE2881E00E9417218DE20E94302A62E0A1
:2044000080E090E00E94B706813059F482E390E00E940A0960E088EC90E00E94B7068111D0
:2044200030C00E94302983EA92E00E94EE2840E062E080E00E949F170E94302980910101D2
:204440008B30D1F660913B0170913C0180913D0190913E0126E440913A010E944C290E94F1
:20446000012988E391E00E94F3138F3F2FEF920719F2BC0180E090E024E04EEF0E944C2919
:20448000BECF0895CF93DF93C82FD62F0E94BA0E482F6D2F8C2F0E94390E15B88091B00172
:2044A00084B98091B50187B988B98091B9010E94190E813D934010F00E94CB18DF91CF91FD
:2044C0000895A0E0B0E0E7E6F2E20C946C2D83E080931F010E94892A89EE91E00E94EE28CA
:2044E0008EED91E00E940A29FAE09F2EA9E18A2EC4E1D0E062E080E090E00E94B70681309B
:2045000059F482E390E00E940A0960E08CE291E00E94B706811175C10E94892A89EE91E041
:204520000E94EE280E94CC28109201011092060161E080E00E94422260E081E00E94422292
:2045400062E080E00E94422260E082E00E94422262E081E00E94422261E082E00E944222B9
:2045600080910601813009F0F2C060916601809165010E94BA0E482F609166018091650148
:204580000E94390E8091B60187B918B89091B1018091AF01892B84B995B98091BA010E9419
:2045A000190E813A9F4098F18091AF0185B90E94092B8091B1019091AF01892B85B9809145
:2045C000BA010E94190E8C018091B10185B98091BA010E94190E013A4FE01407C0F4803A41
:2045E0002FE0920790F49801E3E036952795EA95E1F7A901400F511F021B130B0817190772
:2046000030F48417950728F002C084E603C082E301C085E69091AF0194B9843609F082C094
:204620002091B7018091B601822B87B928B990928C0195B90E94092B8091B8010E94B90D76
:204640007C018091B9010E94B90D8C0115B880928C0120919101309192012E193F09A0E10A
:20466000B7E20E94492D2091BD013091BE012057354E40E050E00E94022D69017A01980101
:20468000A0E1B7E20E94492D2091BB013091BC0140E050E00E94022DEE24FF242C193D091C
:2046A0004E095F09A4E6B0E00E945F2DA70196010E94022D29013A018091B60187B918B8A6
:2046C0009091B1018091AF01892B84B995B98091BA010E94190E5C01813A4FE0940708F494
:2046E00044C02091B7013091B1018091AF01832B85B980E096B1922321F08F5F8B3FD1F740
:2047000008C046E4849FC0011124BE010E94DA2C5B0135B980E096B19223F1F48F5F8B3FE4
:20472000D1F723C0853699F48BE092E00E94EE288AE891E00E941C29609167017091680164
:2047400080E090E026E54DEF0E944C29D3CE84EE91E00E94EE28CECE26E4829FC001112432
:20476000BE010E94DA2C8B0102C00FEF1FEF85E192E00E94EE2880EF90E00E941C2925E21B
:2047800040E0C301B2010E944C298DEE90E00E941C2921E44AEFC701B6010E944C294FEF87
:2047A000A416B406A9F088EE90E00E941C298AE0A816B10430F48CE30E94302A7AE0A72E84
:2047C000B12CB50180E090E023E749EF0E944C290F3F2FEF120709F4ABCF82EE90E00E949F
:2047E0001C290A30110528F48CE30E94302A0AE010E0B80180E090E023E749EF0E944C29E1
:2048000097CFCDB7DEB7E0E10C94882D282F6B3020F041FF14C095E008C040FF02C093E03C
:2048200001C091E0691708F4962F862F891B281720F0960F81E0921720F480E0089593E02A
:20484000F4CF0895A0E0B0E0E8E2F4E20C946C2DEC01A62E922E702E42FB002700F9522E13
:20486000550C812CD12C8BECE82E81E0F82E10E0BB24B394C12C4270442EAB1440F168801A
:20488000472D692D862D0E940624811109C0472D652D862D0E9406248823C1F082E001C030
:2048A00081E0B0FC0BC0023031F401E0813009F400E081E019C08130E1F108C0013021F48F
:2048C000813081F002E00FC08130A9F1C12CDD20A1F1E7E0ED1518F0110FD394FACFF70125
:2048E00010832BC000E082E0D394C394110F442019F0813021F402C0823009F4116088E09D
:20490000D8120BC0F70110838394F5E0F81518F08FEFE81AF80AD12C10E081E08B0DBA1024
:2049200005C0023019F498822197A82E2196B82EA4CF01E0F2CF02E0F0CF8C2DCDB7DEB7A6
:20494000E0E10C94882DA0E0B0E0E9EAF4E20C946D2D862E742E622E502E6C01A12C00E0D0
:20496000CBECD1E010E0BB24B394F12C8B1468F1F60191906F01B0FC1BC00F5FF394110F80
:204980004E2D662D892D0E940624811108C04E2D652D892D0E9406248823B1F011600830A9
:2049A00089F41883A394F5E0FA1550F0219608C04E2D672D892D0E940624811103C004C05B
:2049C00000E010E0B394D2CFF12C002331F0083018F4110F0F5FFBCF18838F2DCDB7DEB7B2
:2049E000EFE00C94892DA0E0B0E0E9EFF4E20C94702DEC01D62EB42EE22EA02E922E900E88
:204A0000822E880C00E010E0F12CDD2039F1C880B11660F040E06E2D8C2D0E9406248823F4
:204A200011F01F5F01C01E5FB116A8F440E06A2D8C2D0E940624882311F0E88208C040E01C
:204A4000692D8C2D0E940624882311F08882F394013021F001E0DA942196D7CF8F2DCDB7D0
:204A6000DEB7ECE00C948C2D8150282F2770869586958695E82FF0E0E553FE4F9081822F3E
:204A8000882319F0990F8150FBCF38E0321B21E0621750F0880F97FD8160990F231302C054
:204AA000918131962F5FF4CF413051F4982F80E0662331F0880F90FD816096956150F8CF9D
:204AC0000895A0E0B0E0E7E6F5E20C94702D6C01862E81E0861708F0CEC2F601A080F18019
:204AE000E60122962EEF922E960E42E063EB8A2D0E940624882309F448C042E069E58F2DC7
:204B00000E940624882349F1E12C01E22BE04BE0692DCE010E94A3248032B9F583E291E0BA
:204B20000E941C2941E068E081E00E943425B82E41E068E089E00E943425C82F41E068E0B6
:204B400081E10E943425182F8C2F8095B81609F461C28C2F0E9440295DC240E06DE28F2DE3
:204B60000E940624882389F0F3E08F120EC040E06BE0F60182810E940624882331F083E2A1
:204B800091E00E941C2982E540C242E062EA8A2D0E940624882389F140E060E58F2D0E947B
:204BA0000624882351F1F3E29F1227C040E060E5F60183890E940624811103C0E601639608
:204BC0001CC08BE0F601838B89E091E00E941C29E12C0EE12BE04BE063E2CE010E94A32419
:204BE000813109F011C241E068E081E00E943425B82E41E068E08AE003C240E068EA8A2DCB
:204C00000E940624811107C042E068EB8A2D0E9406248823F1F040E064E58F2D0E940624FA
:204C20008823B9F0E12C00E22BE04BE0692DCE010E94A324803169F48AE191E00E941C295C
:204C400041E068E081E00E943425B82E41E068E0A7C140E066E48A2D0E940624882309F443
:204C600076C040E066E48F2D0E940624882361F10E94CC2882E191E00E94EE2892E0E92E64
:204C800004E321E141E1692DCE010E94A3248831A1F441E066E081E00E943425B82E41E023
:204CA00066E087E00E943425182F8DE20E94302A86E30E94302AC3E001C0C1E00E94012964
:204CC000C13009F0A5C1A0C140E062E28F2D0E9406248823E1F186E191E00E941C29EE24E9
:204CE000E3940AE128E048E0692DCE010E94A324803309F089C141E068E081E00E94342599
:204D0000C82F41E068E089E00E9434250E9440298C2F0E9440298AE30E94302A41E064E030
:204D200085E10E943425C82F41E068E089E10E943425B82E41E068E081E20E943425182F59
:204D40008C2F0E9438298DE20E94302A63C140E06BE08A2D0E9406248823B9F140E064E35C
:204D60008F2D0E940624882381F100E02BE042E0692DCE010E9422248A3039F541E068E0E3
:204D800082E00E943425182F41E061E08AE00E943425C82F1F3F69F4813059F480910001E6
:204DA000811103C0C093000166C1823009F063C13AC18EE091E00E941C298C2F0E943829D5
:204DC000812F0E94402982E0C5C040E069E58A2D0E940624882301F140E069E58F2D0E94D7
:204DE00006248823C9F08AEF90E00E941C29E12C02E22BE04BE0692DCE010E94A3248032AE
:204E000009F002C141E068E081E00E943425B82E41E068E081E1F4C040E060E38A2D0E94F0
:204E20000624882309F458C040E06CE08F2D0E940624882309F450C00E94CC288EE191E066
:204E40000E94EE286FEF680DE12C08E12CE04CE0CE0101970E94A324D82F8C3039F08F301E
:204E600039F005E0843129F0C1E004C005E001C008E0C2E041E067E081E00E943425182FB6
:204E800041E0602F88E00E943425B82EC23051F48D2F90E0A0E0B0E020E040E0BC01CD01FB
:204EA0000E944C290E940129C23009F0ADC08B2D0E9440298AE30E94302A812F0E944029D0
:204EC000D43109F0B0C08AE30E94302A41E068E08DE00E943425A5C040E066E08A2D0E9406
:204EE00006248823D1F140E06EE08F2D0E940624811107C040E063E28F2D0E940624882334
:204F000061F1E12C03E22EE046E0682DC6010E94A3248F3009F078C080910001811183C07D
:204F200041E065E081E00E943425B82E41E068E086E00E943425182F84EF90E00E941C29EE
:204F40008B2D0E9440298AE30E94302A812F0E94402981E0809300018EC040E061E18A2D8E
:204F60000E9406248823F1F040E061E18F2D0E9406248823B9F084E091E00E941C2900E0FF
:204F800021E145E0682DC6010E9422248E30E1F542E065E084E00E943425B82E42E066E0FE
:204FA00089E02EC040E065E38A2D0E940624882309F440C040E061E18F2D0E940624882372
:204FC000C9F18FEF90E00E941C2901E128E048E0692DCE010E94F3248230B1F401E028E0D2
:204FE00042E0692DCE010E942224853169F442E068E086E00E943425B82E42E068E08EE0A6
:205000000E943425182F06C08FE30E94302A0BC0C33049F48B2D0E9440298AE30E94302AF3
:20502000812F0E9440291092000188EC90E00E940A0921C00E94CC28682D70E080E090E04D
:2050400020E040E00E944C298AE30E94302A6A2D70E080E090E020E040E00E944C298DE253
:205060000E94302A6F2D70E080E090E020E040E00E944C29D8CFCDB7DEB7ECE00C948C2D5C
:20508000A5E6B0E0E6E4F8E20C94752D80E00E943D070E94892A86EF91E00E94EE2882E074
:2050A00080931F010E94CC2844E66BE28DE20E94210118B881E087B984E284B984E085B9C7
:2050C00021E0329B12C0A6962FAFA6970E94302961E081E00E94BF2A00E010E0F12CD12CC7
:2050E00080E0A6962FADA69721C060E084E690E0A6962FAFA6970E94B706A6962FADA697F5
:205100008823F9F220E0DFCFE6B09E2D9470E92E213079F0981314C0F394E0EFEF1568F0E4
:205120002230E1F0233009F1A8958E2D2111ECCF2EC0992371F0E82E1FC08823E9F015C0C1
:20514000F3E6FD1590F0D394F801F1928F01F12CE7CF8E010F5F1F4FF12CD12C0E94102B3C
:205160008CE200008150E9F710C06D2DCE0101960E94612521E0D8CF21E04F99D5CF82E37E
:2051800090E00E940A0920E0F8CF22E0CDCFCB59DF4FE7E00C94912DCF93C0911F0160914A
:2051A000210180912301681313C0C0FD0E943707C1FF0BC0C0912301C23028F08C2F0E9446
:2051C000D12AC150F9CF62E004C00E94892A04C06F5F81E00E94BF2ACF910895CF93DF9351
:2051E000EC01CE010E94C72D882321F00E94302A2196F7CFDF91CF9108958F5C0E94302AD4
:20520000089580E20E94302A08950E94EE280E9401290895A2E0B0E0E0E1F9E20C947A2DE0
:2052200089839A830E94CC2889819A810E94EE282296E2E00C94962DA2E0B0E0E2E2F9E244
:205240000C947A2D89839A830E94CC2889819A810E94EE280E9401292296E2E00C94962DC2
:2052600082E00E94D12A62E081E00E94BF2A08958A3010F4805D01C0895C0E94302A08958A
:20528000CF93C82F82958F700E9438298C2F8F700E943829CF9108958F929F92AF92BF92FE
:2052A000CF92DF92EF92FF920F931F93CF936B017C01142FC22F8AE0882E912CA12CB12CB0
:2052C00080E1C81687E2D806E104F10470F0C701B6016B5F7F4F8F4F9F4FA50194010E944E
:2052E000022D69017A011F5FEBCF143FACF08CE0810F23E0622F0E94CC2C192F992319F03C
:205300008F5F291B122F873040F490E086539F4F0E94C72DB82E02C010E0B12C4AE06CE275
:2053200071E0C6010E94AD2DECE2F1E001900020E9F73197EC52F140AE2E0E2F011B101617
:205340005CF080E30E94302A8EE20E94302A002319F080E30E94302A111101C00FEFEFEFEC
:20536000E00F0CE211E0E12CF12CCE2EDD24C7FCD094EA1478F4F80181918F010E94302A10
:20538000EC14FD0419F48EE20E94302AFFEFEF1AFF0AEFCFBB2019F08B2D0E94302ACC234E
:2053A00019F08C2F0E94302ACF911F910F91FF90EF90DF90CF90BF90AF909F908F90089528
:2053C000CF92DF92EF92FF92CF93DF9300D0CDB7DEB76B017C0197FF0FC08DE22A834983F6
:2053E0000E94302AF094E094D094C094C11CD11CE11CF11C49812A81C701B6010E944C2922
:205400000F900F90DF91CF91FF90EF90DF90CF9008955D9A0E94132B5D9808958AB18F636F
:205420008AB908959BB1907F982B9BB90E94142B0E94092A0895CF93C82F82958F700E94B6
:20544000122A8C2F8F700E94122A0E940F2B8BB1807F8BB9CF9108955C980E941B2A0895A8
:2054600090912001913178F4E82FF0E0EC57FF4F84918F3F41F05C9A0E941B2A8091200121
:205480008F5F8093200108958EE190E00E940A098BB1837E83608BB90E94092A85E090E0AB
:2054A0000E940A090E94092A81E090E00E940A090E94092A81E090E00E940A09589881E030
:2054C00090E00E940A090E94092A81E090E00E940A0908950F931F93CF93DF9328E0829F5E
:2054E000C0011124EC01CC57DE4F80640E942C2A5C9A8E01085F1F4FFE0184910E941B2A48
:205500002196C017D107C1F7DF91CF911F910F91089581E00E942C2A82E090E00E940A09D0
:2055200081E0809320018093210108950E94442A88E20E942C2A8CE00E942C2A86E00E9426
:205540002C2A81E00E946A2A82E00E946A2A83E00E946A2A86E00E946A2A87E00E946A2AF4
:2055600084E00E946A2A85E00E946A2A0E94892A80E18093220182E08093230108958093C1
:20558000200160932101615061FD02C090E001C094E160FD905C8150890F80680E942C2ACC
:2055A0000895CF93811104C0C0912001C15005C0682F81E00E94BF2AC0E0C43128F480E2B8
:2055C0000E94302ACF5FF9CFCF910895CF93C82F62E080E10E94BF2AC11102C08CE001C094
:2055E0008EE00E942C2ACF91089503D002D001D000D000D003D002D001D000D0A89500D0DF
:2056000003D002D001D000D000D003D002D001D000D000D003D002D001D000D000D003D075
:2056200002D001D000D000D003D002D001D000D000D00000000000000895FF920F931F938F
:20564000CF93DF9380E48AB98BB980E185BF87E880937A00C4B7C87084B7877F84BF88E14A
:205660000FB6F89480936000109260000FBE1092890182E080938A0186E080938B010E94C4
:205680000E2ACC2381F00E94892A8BE992E00E94EE2887E292E00E940A2980ED97E00E9449
:2056A0000A091BB862C14F9910C084E190E00E940A094F9905C0CF5FC536B9F7C3E04FC166
:2056C000C03108F04BC1C1E001C0C0E00E94962A10921F01C33019F40E947A0904C061E085
:2056E00081E00E94A3098DEC91E00E94EE2886EC91E00E940A298CED95E00E940A0910925C
:20570000930189E180938C0181E080938D0180938E0189E893E190939201809391012FE0F8
:2057200088E190E00FB6F894A895809360000FBE209360007894C2E0D8EC19E103E01092BE
:205740000101109202011092030110920401109206011092050110929801109297011092ED
:205760009A011092990110929B0110929C0110929D0110929E0110929F011092A00110922D
:20578000A1011092A201109229011092280110922B0110922A0117B8C0931F010E94892A59
:2057A0008EE00E94B90D9093900180938F01D0938C018EE00E94B90D10938C012091C20152
:2057C000820F911D27FD9A959093900180938F018DEC91E00E94EE2883EA92E00E940A298A
:2057E0000E94070F809101018130D1F142E061E080E00E941E1042E060E081E00E941E1045
:2058000041E062E080E00E941E1041E060E082E00E941E1040E062E081E00E941E1040E0AF
:2058200061E082E00E941E100E94BA1080910101882311F08A30A1F40E94012983E40E94A6
:20584000302A40E060E082E00E949F1741E061E082E00E949F1742E060E081E00E949F179D
:205860000E94892A00931F01809101018E3109F178F48A3039F128F4813051F50E945401FA
:2058800029C08B3011F1843119F50E94090322C08132A9F038F48F3179F08032C9F40E945D
:2058A000A20518C0823259F0833291F40E94E10511C00E942F040EC00E946F050BC00E94B3
:2058C000B40508C00E94960105C00E944F0202C00E944601809101018A3010F010929301A8
:2058E00010921F0166E088EB9BE00E94B706811105C080919301853000F521CF813069F4AF
:2059000082E390E00E940A0960E08CE291E00E94B706882309F413CF04C0823071F0853663
:2059200049F4F0908B0110928B010E94B708F0928B01D6CF873609F002CF0E94892A82E09E
:2059400092E00E94EE28F89488E10FB6F89480936000109260000FBE5E9807C0C2E0809125
:205960008901816080938901B1CE80E090E0CDB7DEB7E5E00C94932DDB018F939F930E94C0
:205980005F2DBF91AF91A29F800D911DA39F900DB29F900D1124089587FB082E062687FD68
:2059A000819567FD61950E94A12D0EF4919507FC81950895AA1BBB1B51E107C0AA1FBB1FF2
:2059C000A617B70710F0A61BB70B881F991F5A95A9F780959095BC01CD01089597FB072EB2
:2059E00016F4009407D077FD09D00E94DA2C07FC05D03EF4909581959F4F08957095619572
:205A00007F4F0895A1E21A2EAA1BBB1BFD010DC0AA1FBB1FEE1FFF1FA217B307E407F507C2
:205A200020F0A21BB30BE40BF50B661F771F881F991F1A9469F760957095809590959B0194
:205A4000AC01BD01CF010895052E97FB1EF400940E943B2D57FD07D00E94022D07FC03D027
:205A60004EF40C943B2D50954095309521953F4F4F4F5F4F089590958095709561957F4F2D
:205A80008F4F9F4F0895EE0FFF1F0590F491E02D0994A29FB001B39FC001A39F700D811D5C
:205AA0001124911DB29F700D811D1124911D08950E94492DB7FF0895821B930B08950E9432
:205AC000492DA59F900DB49F900DA49F800D911D112408952F923F924F925F926F927F92B9
:205AE0008F929F92AF92BF92CF92DF92EF92FF920F931F93CF93DF93CDB7DEB7CA1BDB0BD2
:205B00000FB6F894DEBF0FBECDBF09942A88398848885F846E847D848C849B84AA84B984EE
:205B2000C884DF80EE80FD800C811B81AA81B981CE0FD11D0FB6F894DEBF0FBECDBFED0141
:205B40000895991B79E004C0991F961708F0961B881F7A95C9F780950895BB27FB01552747
:205B6000AA27880F991FAA1FA41710F0A41B83955051B9F7A05DAA3308F0A95DA1930097B6
:205B800079F7B111B1931192CB010C94E32DF999FECF92BD81BDF89A992780B50895A8E1D7
:205BA000B0E042E050E00C94F52D262FF999FECF1FBA92BD81BD20BD0FB6F894FA9AF99AD2
:205BC0000FBE01960895DC01FC01672F71917723E1F7329704C07C916D9370836291AE179B
:205BE000BF07C8F30895DC01CB01FC01F999FECF06C0F2BDE1BDF89A319600B40D92415032
:0A5C00005040B8F70895F894FFCF64
:00000001FF
